:020000040800F2
:10000000B8620120D5030008F72B000891260008EC
:10001000F52B0008C9230008913A000800000000F1
:1000200000000000000000000000000015030008B0
:10003000392400080000000071030008D1340008D2
:10004000EF030008EF030008EF0300087D3200080B
:10005000EF030008EF030008EF030008EF030008B8
:10006000EF030008512400088D240008EF03000866
:10007000EF030008EF030008EF030008EF03000898
:10008000EF030008EF030008EF030008EF03000888
:10009000EF030008EF030008EF030008D524000871
:1000A000EF030008EF030008EF030008EF03000868
:1000B000EF030008EF030008EF030008EF03000858
:1000C000EF030008EF030008EF030008EF03000848
:1000D000EF0300083D380008EF030008C5380008AA
:1000E000EF030008252E0008EF030008EF030008C7
:1000F000EF030008EF030008EF030008EF03000818
:10010000EF030008EF030008EF030008EF03000807
:10011000EF030008EF030008EF030008EF030008F7
:10012000EF030008EF030008EF030008EF030008E7
:10013000EF030008EF030008EF030008EF030008D7
:10014000EF030008EF030008EF030008EF030008C7
:10015000EF030008EF030008EF030008EF030008B7
:10016000EF030008EF030008EF030008EF030008A7
:10017000EF030008EF030008EF030008EF03000897
:10018000EF030008EF03000800F002F800F0B2F8F7
:100190000AA090E8000C82448344AAF10107DA45E2
:1001A00001D100F0A7F8AFF2090EBAE80F0013F082
:1001B000010F18BFFB1A43F001031847B0C907002D
:1001C000D0C907000A444FF0000C10F8013B13F0AF
:1001D000070408BF10F8014B1D1108BF10F8015BA0
:1001E000641E05D010F8016B641E01F8016BF9D193
:1001F00013F0080F1EBF10F8014BAD1C0C1B09D1EA
:100200006D1E58BF01F801CBFAD505E014F8016B5B
:1002100001F8016B6D1EF9D59142D6D370470000ED
:100220000023002400250026103A28BF78C1FBD8FF
:10023000520728BF30C148BF0B6070476E2900F0DD
:100240003885702900F00B8266290BF0E083652960
:100250000BF0DD8367290BF0DA8361290BF0D9837A
:1002600003681B0A28BF41F08001692900F07C81E6
:10027000642900F07981752900F076816F2900F0FA
:100280003186782900F0D781E92900F0CB85E4296F
:1002900000F0C885F52900F0C585EF2900F02E860D
:1002A000F82900F0D6810368DB0928BF41F08001FE
:1002B000632900F03A85732900F03F85E32901F0B6
:1002C0006782F32901F06C82002070471FB50BF0A4
:1002D00094FB01F01FFB0400002000210AF0F2FD56
:1002E000401C6060002000210AF002FEE0601FBD9B
:1002F00010B510BD01F0E9FA1146FFF7E7FF07F06E
:10030000EFF801F0C7FB03B4FFF7F2FF03BC04F002
:10031000A6F800002C4B19680868B0E8F04F80F38D
:100320000988BFF36F8F4FF0000080F3118870478A
:100330000000000008480068006880F308884FF05B
:10034000000080F3148862B661B6BFF34F8FBFF32D
:100350006F8F00DF00BF00BF08ED00E0DFF80C008A
:10036000016841F470010160704700BF88ED00E052
:10037000EFF30980BFF36F8F134B1A681EF0100F55
:1003800008BF20ED108A20E9F04F106009B44FF04B
:10039000500080F31188BFF34F8FBFF36F8F09F0C8
:1003A00047FE4FF0000080F3118809BC1968086807
:1003B000B0E8F04F1EF0100F08BFB0EC108A80F3C9
:1003C0000988BFF36F8F704738010020EFF3058075
:1003D000704700000948804709480047FEE7FEE7EC
:1003E000FEE7FEE7FEE7FEE7FEE7FEE7FEE7FEE7E5
:1003F00004480549054A064B70470000FD340008D3
:1004000089010008B85C0120B8620120B85E0120B3
:10041000B85E0120704710B54C1084EA530404D52F
:100420004042C1F1000138BF491E1B4204D552426F
:10043000C3F1000338BF5B1E00F04EFB14F0804F89
:1004400004D04042C1F1000138BF491E14F0004FF2
:1004500004D05242C3F1000338BF5B1E10BD000040
:100460001CB50C46064B7B4469460090204600F0C4
:100470003AFC04460020694600F048FC20461CBDBA
:10048000A30800000FB4044910B503AA029800F0B5
:1004900059FC10BC5DF814FB240100200FB41CB5FE
:1004A000084B06AA7B4469460090059800F01BFCA7
:1004B00004460020694600F029FC20461CBC5DF87B
:1004C00014FB00006508000070B5044685690068EB
:1004D000C10601D5302600E02026C00707D070BD38
:1004E000D4E9012130469047206A401C20626D1EED
:1004F000F6D570BD70B5044685690078C00707D190
:1005000070BDD4E9012120209047206A401C206260
:100510006D1EF6D570BD70B50C460546012A05D096
:100520002878800600D5EA69002302E0012305E06F
:100530005B1C934202D2E05C0028F9D1A869E6185E
:10054000C01AA861286A184428622846FFF7BCFF31
:1005500004E0D5E9012114F8010B9047B442F8D327
:100560002846FFF7C7FF70BD2DE9F041064600247D
:1005700010687529314616A510D000F02FFB002811
:1005800002DA404213A507E031688A0701D512A5B7
:1005900002E0490704D511A5012401E000F027FB82
:1005A00000210A2206F1240709E0B0FBF2FCB0FBAF
:1005B000F2F302FB1C00303078541846491C002826
:1005C000F3D123462A463046BDE8F04100F018BB7F
:1005D000000000002D0000002B00000020000000A3
:1005E000F0B40D460188090502D5214C7C4402E097
:1005F0001F4C7C440E34002100F1240608E002F078
:100600000F071209E75D42EA03721B097754491C80
:1006100052EA0307F3D102780023120704D5702DA4
:1006200006D009B1022311342246F0BC00F0E8BA2A
:1006300001231034F8E770B504460D4621461068D2
:1006400000F0D5FA024629462046BDE87040002356
:10065000C6E7D21D22F00703D3E90023C0E70368F1
:10066000126843F0200303600823C3610023B7E747
:10067000F6BF07002DE9F05F894604464FF0000AF7
:10068000DFF874B1FB44C0F820A02046E168884739
:10069000002874D0252806D0D4E901219047206A8B
:1006A000401C2062F1E700265F462046E16888474B
:1006B0002028054607DB312D05D2781910F8200CCB
:1006C00008B10643F1E7B00701D526F00406C4F8E7
:1006D0001CA00027C4F818A02A2D09D0284603F032
:1006E000B7FE38B304EB8708303DC8F8185019E05E
:1006F00059F8041B204604EB87029161E1688847A2
:10070000012F054618D1E069002820DA26F02006DE
:100710001DE0D8F8180000EB800005EB40003038F1
:10072000C8F818002046E1688847054603F090FEA7
:100730000028EED1012F0AD02E2D08D12046E168E5
:1007400088477F1C0546022F46F02006C4DBA069BF
:10075000002803DA404246F00106A061F00701D00C
:1007600026F010066C2D0BD0682D09D04C2D39D0F9
:100770006A2D35D0742D35D07A2D33D016E038E07F
:10078000E1682F4620468847B842054609D16C2FBC
:1007900026D04FF48060E16806432046884705462E
:1007A00004E06C2F1AD04FF4807006430DB3A5F10E
:1007B0004100192802D8203546F400664A462946E9
:1007C000204626604E46FFF739FD80B101280BD048
:1007D000F61D26F0070000F1080956E74020E4E77F
:1007E0008020D8E70020D6E706F104094DE7284627
:1007F00052E7206ABDE8F09F86BF070070B5064645
:1008000000F066F90468054630460A22002100F02F
:100810007FFB2C6070BD0000014A00F0B1BB0000FE
:100820009C04002030B505460B462A4613F8014BC0
:1008300012F8010B08B1A042F8D01CB1002802D078
:100840006D1CF1E7284630BD40EA010310B59B0757
:100850000FD1042A0DD310C808C9121F9C42F8D02A
:1008600020BA19BA884201D9012010BD4FF0FF30DB
:1008700010BD1AB1D30703D0521C07E0002010BDF1
:1008800010F8013B11F8014B1B1B07D110F8013B7D
:1008900011F8014B1B1B01D1921EF1D1184610BD5E
:1008A00040EA010370B59B072ED14FF00136042AB0
:1008B0002AD308C810C99D1B9D43121F15EAC615EF
:1008C00017D0D8B2E1B2401A50EA056110D198B2FF
:1008D000A1B2401A50EA05410AD123F07F4024F02A
:1008E0007F41401A50EA052102D1180EA0EB146096
:1008F00070BDA342DBD018BA21BA884201D90120C9
:1009000070BD4FF0FF3070BD0AB9002070BD10F807
:10091000013B11F8014B63B1A3420AD1521E08D02A
:1009200010F8013B11F8014B1BB1A34201D1521E3B
:10093000EDD1181B70BD032A40F2308010F0030C7B
:1009400000F0158011F8013BBCF1020F624498BF22
:1009500011F801CB00F8013B38BF11F8013BA2F1BF
:10096000040298BF00F801CB38BF00F8013B11F03A
:10097000030300F02580083AC0F0088051F8043BDA
:10098000083A51F804CBA0E80810F5E7121D5CBF47
:1009900051F8043B40F8043BAFF30080D20724BF7A
:1009A00011F8013B11F801CB48BF11F8012B24BF0E
:1009B00000F8013B00F801CB48BF00F8012B70475D
:1009C00010B5203AC0F00B80B1E81850203AA0E8EA
:1009D0001850B1E81850A0E81850BFF4F5AF5FEA1E
:1009E000027C24BFB1E81850A0E8185044BF18C9D1
:1009F00018C0BDE810405FEA827C24BF51F8043B78
:100A000040F8043B08BF7047D20728BF31F8023BCB
:100A100048BF11F8012B28BF20F8023B48BF00F85F
:100A2000012B704702F0FF0343EA032242EA02422D
:100A300000F002B84FF000020429C0F0128010F05C
:100A4000030C00F01B80CCF1040CBCF1020F18BFAA
:100A500000F8012BA8BF20F8022BA1EB0C0100F03D
:100A60000DB85FEAC17C24BF00F8012B00F8012B10
:100A700048BF00F8012B70474FF0000200B5134645
:100A800094469646203922BFA0E80C50A0E80C50AE
:100A9000B1F12001BFF4F7AF090728BFA0E80C505F
:100AA00048BF0CC05DF804EB890028BF40F8042B58
:100AB00008BF704748BF20F8022B11F0804F18BFC5
:100AC00000F8012B7047704770477047704700006F
:100AD00000487047585C012053EA020C00F069801E
:100AE0002DE9F04B4FF00006002B1FBFB3FA83F542
:100AF00003FA05F424FA05F65E4012BF1643B2FA73
:100B000082F502FA05F4C5F120051EBF22FA05FCA4
:100B100044EA0C04203556EA044C4FEA144418BF4A
:100B2000641C4FF000084FF00009904271EB030C79
:100B300039D3002919BFB1FA81F701FA07F6B0FAE3
:100B400080F700FA07F6C7F120071EBF20FA07FC5E
:100B500046EA0C062037B6FBF4FCA7EB0507103F6E
:100B600007F01F0BCBF120060CFA0BFB2CFA06F654
:100B700044BFB3460026202FA4BF5E464FF0000BB3
:100B80005BEA060C08BF4FF0010B19EB0B09ABFB3E
:100B9000027C48EB0608C01B06FB02CC0BFB03CC17
:100BA00071EB0C01C1E70B46024641464846BDE8E1
:100BB000F08B13B54FF000004FF00001AFF3008051
:100BC000BDE81C40704710B5FFF782FF006810BDFC
:100BD00010B50446FFF77CFF046010BD09684A05A4
:100BE00001D540B27047C905FCD500B2704709680D
:100BF0004A0501D5C0B27047C905FCD580B270471F
:100C00002DE9F0470D4699469246044600F1240826
:100C10000168880604D5E06921F01001216000E038
:100C20000120A84201DD471B00E00027A1697A19D5
:100C300002EB0900081AA0612078C00602D4204601
:100C4000FFF742FC002608E0D4E901211AF806006B
:100C50009047206A401C761C20624E45F4DB2078C9
:100C6000C0060AD52046FFF72FFC06E0D4E9012193
:100C700030209047206A401C2062381EA7F10107EF
:100C8000F4DC07E0D4E9012118F805009047206A58
:100C9000401C2062281EA5F10105F3DC2046FFF769
:100CA00029FC2078000602D50220BDE8F08701204B
:100CB000FBE711680268006A530501D508700AE075
:100CC000D30501D5088006E0130603D5C217C1E994
:100CD000000200E0086001207047000001694A1C22
:100CE00002610878704700B58FB0CDE9013100216D
:100CF000059105497944CDE9031011466846FFF78F
:100D0000B9FC0FB000BD0000E5FFFFFF0A6802F864
:100D1000010B0A60704710B5436913B1AFF300804F
:100D200001E0FFF7F8FB012010BD127800F124016B
:100D30000A7000224A700122EDE711684FF0FF327D
:100D4000E9E70000074B70B50D467B44FFF7CBFF8A
:100D50000446284600F077FD10B14FF0FF3070BD1B
:100D6000204670BDB35D00002DE9FF5F15468A4641
:100D70000446DFF8AC80F8440027D8E900103E466E
:100D8000CDE9001010E03AF816106A4602A800F00B
:100D90005EFD411C07D02178890603D5E269391828
:100DA00091420DD80744761C2078800602D5E06970
:100DB000B84205DDAE42E6DB3AF816000028E2D183
:100DC000A069C01BA0612046FFF77EFBD8E9001098
:100DD000CDE90010002017E03AF818106A4602A882
:100DE00000F035FDB0F1FF3F81460BD000250DF13D
:100DF000080B05E0D4E901211BF8050090476D1CA4
:100E00004D45F7D308F10100B0428046E4DB206A8B
:100E1000384420622046FFF76DFBBDE8FF9F0000CD
:100E2000F6B807002DE9F0418046D21D22F00702F6
:100E30000025D2E90002F52915A614D0011E72F191
:100E4000000106DA0023D0EB030063EB020211A6D7
:100E500008E0D8F800108B0701D50FA602E049077B
:100E600001D50EA601251146002408F1240704E04F
:100E700000F0B4F830323A55641C50EA0102F7D160
:100E80002B46324621464046BDE8F041FFF7B8BE4A
:100E9000000000002D0000002B00000020000000DA
:100EA00030B4002100F1240408E002F00705D20864
:100EB000303542EA4372DB086554491C52EA0305A7
:100EC000F3D10468002310A2250708D504F02004FC
:100ED0000C4304D0C46901230CA2641EC46130BC5D
:100EE000FFF78EBE10B5044621461068FFF77FFE5F
:100EF00002462046BDE810400023D1E7D21D22F073
:100F00000701D1E90023CBE700000000300000001A
:100F10002DE9F04791460F4680460446002614F816
:100F2000015B2DB100F052F80068405DC007F6D1BA
:100F30002B2D02D02D2D18D0641E4A46394620464E
:100F400000F032FC27B13968A14201D1C7F8008016
:100F50004FF0020471050BD54042002803DDFFF776
:100F6000B7FD0460A007BDE8F08746F48066E4E7BB
:100F70000028F8DAFFF7ACFD04606FF00040F2E7FC
:100F80002DE9F04115460E46040002D12C6804B943
:100F90000BA4204600F08BFC0444207870B1274657
:100FA0003146384600F073FC0444207810B100202C
:100FB00004F8010B38462C60BDE8F0810027F9E702
:100FC0000000000000487047585C012010B500F098
:100FD000A1FC001D10BD00BFED9E000030B5B0F1BA
:100FE0000A024FEA900E71F100034EEA817EB0EBE7
:100FF0000E0061EB91014FEA101E4EEA017E10EBEC
:101000000E0041EB11114FEA102E4EEA016E10EB6B
:101010000E0041EB11214FEA104E4EEA014E10EB4B
:101020000E0041EB1141401841F100014FEAD000A0
:1010300040EA41704FEAD10110EB80054FEA81048C
:1010400044EA907444EB01046D1944EB0404521B10
:10105000A3414FF0000348BF0A3200D530BD401C09
:1010600041F1000130BD70472DE9FF4F0C461E468F
:101070004FF0FF378BB0D2E90001DDF860800A90B5
:101080008A46C1F30A5505B93D46002108464FF08E
:101090000000BAF1000F00F4400005DA00EB800018
:1010A0004FF4400101EA50004FEA9059B9F1010FA5
:1010B00000DDB9460A9850EA4A000ED044F61050B6
:1010C000A5F2FF3545432F14B8F1000F1ED075422D
:1010D000291E1EDDC9F100021CE0B8F1010F4FF01E
:1010E000000001D0302103E0F24305E02154401C10
:1010F000B042FBDB30460022002121540B99C1F89D
:101100000880C1E900200FB0BDE8F08FBD1B6D1C49
:10111000DEE74A4600DA694206A800F04DFC06AB5D
:1011200093E8070003AB83E8070050460A9900F0F4
:10113000F7FC8DE80700A0F500501F3800900398D9
:10114000002D09DD42F21F014A46084403A903901D
:10115000684600F056FF08E0A0F500504A461F38E8
:1011600003A90390684600F060FF8DE807000004C3
:10117000000C03D04FF0FF30410800E01046B8F1FA
:10118000000F03D00022009215461EE0751E05D404
:10119000FFF724FF303262556D1EF9D5B3460122A8
:1011A000084302D000227F1C04E02078302801D1BF
:1011B00000227F1E002A099786D01DE0112D07DA34
:1011C000FFF70CFF303262556D1C50EA0102F5D179
:1011D000084302D00098C8B10EE00021681E05E067
:1011E000235C625C63542254401E491C8142F7DB3D
:1011F000AB46A81B401E0990002004F80B000B987A
:10120000099AC0F80880C0E9002B7CE711264FF04E
:10121000000859E72DE9F04F88460446D21D22F018
:10122000070191B0D1E90001CDE90A0102F031FCDA
:1012300002460B98C00F01D02D2007E020688107DF
:1012400001D52B2002E0202101EAC000032A0990E9
:1012500001D0072A05DB03464146204600F05EFB2D
:101260000BE12078800601D5E06900E00620B8F1A6
:10127000650F814606D0B8F1660F18D0B8F1670F38
:1012800070D131E00020B9F1110F009001DB112382
:1012900001E009F101030AAA01A90CA8FFF7E4FE85
:1012A000DDE90C70002609F10105834647E00120C5
:1012B0004B4600904FF000470AAA01A90CA8FFF77F
:1012C000D3FEDDE90DB00C995D46002610B909F199
:1012D00001000D18B9EB050003D4C0F1FF3609F188
:1012E0000105A5EB09002BE0B9F1010F01DA4FF080
:1012F00001090020B9F1110F0090484601DD1123CA
:1013000000E003460AAA01A90CA8FFF7ADFEDDE93B
:101310000C704D4600268346207800070AD4AB4562
:1013200000DA5D4601A8012D04DD411911F8011C08
:10133000302907D04F4502DA17F1040F04DA0120F3
:1013400082460FE06D1EEEE7002F02DCED1B3E44EF
:1013500003E0781CA84200DD7D1CB81B00F1010AE7
:101360004FF000472078000703D4AA4501DB4FF077
:10137000FF3A0021B7F1004F0DF143088DF84310FB
:1013800024D002202B23002F01DA7F422D230A21B3
:10139000021EA0F1010000DC5FB197FBF1FC97FB9E
:1013A000F1F201FB1C7C17460CF1300C08F801CD62
:1013B000EEE7A8F1010003702188090501D5452158
:1013C00000E06521A0F1010800F8011C09980FA9AF
:1013D000A1EB0807FF1D00B10120411901EBEA70E4
:1013E000A1693844081A401EA0612078C00602D4C2
:1013F0002046FFF769F8099828B1D4E90121904700
:10140000206A401C20622078C00622D52046FFF7C3
:101410005BF81EE0002E04DBB34502DD01A8805D11
:1014200000E03020D4E901219047206A401C20626E
:10143000761CAAF101005FEA000A0AD100F06AFAFC
:10144000C0680168405CD4E901219047206A401CD3
:101450002062281EA5F10105DCDC07E0D4E90121AA
:1014600018F8010B9047206A401C2062381EA7F133
:101470000107F3DC2046FFF73DF8032011B043E6F7
:101480002DE9F04F04460D46D21D22F0070089B029
:10149000D0E9009248461746394602F0FAFA024669
:1014A000F80F01D02D2307E02068810701D52B23F9
:1014B00002E0202101EAC0038DF820300BB10120A9
:1014C00000E00020032A824601D0072A04DB2946D7
:1014D000204600F023FA3DE12078800601D40D2556
:1014E00000E0E569C7F30A560D2D49DA00214FEAFD
:1014F000175B08464FF00000002F00F4400007DAA9
:1015000000EB80004FF4400100EBD07001EA600076
:101510008115012901DD4FF0FF3100224FEA850CD2
:10152000BCF1180F06D31346ACF118004FF08052EF
:10153000C24003E04FF4801323FA0CF30CF10C0CBF
:10154000BCF1200F04D3ACF1200C09FA0CF001E03F
:1015500007FA0CF000294FF0004801DD18B90FE040
:101560000ED140450CD319EB02095F4121B940452A
:1015700002D19F4329EA0209BBEB175F00D0761C1A
:101580002088000502D57B48784402E079487844F9
:10159000193808AA302302F80A30037C0AF1010145
:1015A000002E0AF1020A53546A4602DC4FF0300161
:1015B00001E04FF031014FF001088DF8001002D02A
:1015C000A6F2FF3603E059EA470100D06A4E002D2B
:1015D00002DC2178090704D54FF002082E218DF88E
:1015E0000110C44600210BE0C7F303433F01C35C75
:1015F000491C6D1E02F80830052908F1010801DABE
:10160000002DF1DC00210CE000EB1973491C1B7864
:101610006D1E082902F808304FEA091908F101087F
:1016200001DA002DF0DC2178890602D514E0A8F15A
:101630000108E04505DD02EB080111F8011C302925
:10164000F5D0B8F1000F07DD02EB080111F8011C1D
:101650002E2901D1A8F10108002D05DD3E2102F857
:1016600008106D1E08F10108407C002E02F80800E9
:1016700008F1010804DA2D20764202F8080002E0A1
:101680002B2002F808000A214FF47A70864208F1F4
:1016900001080BDB96FBF0F3303302F8083096FBC1
:1016A000F0F308F1010800FB136601E0642E0CDB87
:1016B000642096FBF0F3303302F8083096FBF0F329
:1016C00008F1010800FB136601E00A2E06DB96FB19
:1016D000F1F0303002F8080008F1010896FBF1F053
:1016E00001FB1060303002F80800A16908F1010820
:1016F00008EB050202EB0A00081AA0612078C00678
:1017000002D42046FEF7E0FE216A08AE01EB0A0093
:10171000206204E0D4E9012116F8010B9047BAF1E8
:10172000010AF7D22078C00602D52046FEF7CCFE8B
:101730006E4609E016F8010B3E280FD0D4E90121CE
:101740009047206A401C2062B8F10108F2D220467E
:10175000FEF7D0FE09B00320BDE8F08F206A2844D0
:10176000206203E0D4E90121302090476D1EEBD3C5
:10177000F8E700009FB1070002FCFFFF10B54369C6
:1017800013B1AFF3008001E0FFF7EEFA012010BDC6
:10179000128800F1240182840022C2840122EDE734
:1017A00011684FF0FF32E9E72DE9F05F82461546F8
:1017B0008B4600270AF10104B9460078302801D091
:1017C0009DB113E014F8010B0127782803D05828A5
:1017D00001D045B10AE00DB1102D07D1002714F852
:1017E000010B102502E0082500E00A250026B0467E
:1017F0000EE005FB080005FB06F101271FFA80F843
:1018000001EB1046B6F5803F00D3B94614F8010B42
:10181000294600F0C3F80028EBDABBF1000F05D031
:101820000FB1641E00E05446CBF80040B9F1000F40
:1018300006D0FFF74DF902210160C81EBDE8F09FF8
:1018400048EA0640FAE7007B00F08000704770B578
:1018500016460C460546FFF7B9FB036893F80101ED
:10186000012806D0FF2C0FD8185D68B101202C701C
:1018700070BDD3F807013246214603F20713034433
:101880002846BDE8704018474FF0FF3070BD30B5B6
:1018900003461D781DB10A4603E0AC4201D1181A77
:1018A00030BD12F8014B002CF7D15B1CF1E730B5CD
:1018B00003461D783DB10A4612F8014B1CB1AC42FB
:1018C000FAD15B1CF5E7181A30BD7546FFF77AFBB5
:1018D000AE4605006946534620F00700854618B01D
:1018E00020B5FEF785FDBDE820404FF000064FF023
:1018F00000074FF000084FF0000B21F00701AC4645
:10190000ACE8C009ACE8C009ACE8C009ACE8C00963
:101910008D46704700487047785C01202DE9F04102
:101920001F46044603260168072A01F4006004DB11
:1019300008B116A505E016A503E008B115A500E05D
:1019400015A521F010002060A069C01EA0610FB194
:10195000401EA0612046FEF7B7FD4FB1D4E901213A
:1019600038469047206A401C2062C01C206206E076
:10197000206AFAE7D4E9012115F8010B9047761E99
:10198000F8D22046FEF7B6FDBDE8F0814E414E008C
:101990006E616E00494E4600696E66003A2800D2BC
:1019A000303820F02002412A01D3A2F137008842CA
:1019B00001D34FF0FF3070472DE9F04781461646BE
:1019C0008AB0334878440DC88DE80D00304878441B
:1019D000801C03AC0DC884E80D0041F69B30084420
:1019E000372190FBF1F290FBF1F5A5F1800501FBA9
:1019F00012041B3C02D56442012000E00020DFF805
:101A000090A080460027FA44AAF1BE0A0DE0E00744
:101A100009D03246684607EB47010AEB810100F026
:101A200004FB8DE8070064107F1C002CEFD1184FD9
:101A30007F44AC3F18E0E80714D007EB04100DF129
:101A4000180A90E80E008AE80E00C068F04201D142
:101A500098190890324606A903A800F0E6FA03ABED
:101A600083E807006D10641C002DE4D132466946FE
:101A7000B8F1000F03A802D000F0C3FA01E000F0B3
:101A8000D4FAC9E90001C9F808200AB0BDE8F08716
:101A9000F4AD07000446AFF300802046FEF733FCA8
:101AA0004FF0013C50F8042B51F8043B9A4221D1ED
:101AB000A2EB0C03934313EACC1317D150F8042B79
:101AC00051F8043B9A4215D1A2EB0C03934313EA5D
:101AD000CC130BD150F8042B51F8043B9A4209D196
:101AE000A2EB0C03934313EACC13DBD04FF00000BE
:101AF000704700BFD01A01BAB1FA81F101F01801A4
:101B000022FA01F0CB40C1F12001DBB2C0B2C01A11
:101B10002CFA01F3D11A914311EAC311E6D17047AF
:101B20005FEA400C08BF91F0000F4FEA8C234FEAA8
:101B3000C12243EA51514FEA1C5018BF00F5F04052
:101B40004FEA300018BF41F000415FEA6C5C00F0E2
:101B50002980BCF1FF3F08BF40F080407047130C64
:101B600006BF12044FF0100C4FF0000C130E04BF10
:101B700012020CF1080C130F04BF12010CF1040C3B
:101B8000930F04BF92000CF1020CD30F04BF52005C
:101B90000CF1010C11464FF00002A0F11F00A0EB68
:101BA0000C00704711F0004F08BF704731F0004142
:101BB0003FF4D5AF0B0C06BF09044FF0100C4FF0EB
:101BC000000C0B0E04BF09020CF1080C0B0F04BF34
:101BD00009010CF1040C8B0F04BF89000CF1020CFD
:101BE000CB0F04BF49000CF1010CCCF12003A0EB9A
:101BF0000C0022FA03F302FA0CF241EA030100F1AD
:101C00000100704720F07F4C80EA030023F07F47FB
:101C1000ACEB070303F57C5300F0004003F1FF0336
:101C20002DE980494FEA154B09B44FEA144325EAE0
:101C30000B4E24EA03480FF2042606EB132749084B
:101C40003E785FEA320203FB0667C7F5000707FB31
:101C500006F64FEA54374FEAD64606F1020607FB6E
:101C6000066CCCF1005C4FEA1C472CEA074C07FBE2
:101C700006F40CFB06F504EB15464FEA961634BF46
:101C800000204FF000404FEAD13706FB07FC4FEA37
:101C90001C4C0CFB0BF7D21B03FB0CF761EB070191
:101CA0000CFB0EF7B0EB074072EB17420CFB08F78A
:101CB00034BFA2EB0742B2EB074261EB17414FEA98
:101CC0000C444FEA910706FB07FC4FEA1C4C0CFB47
:101CD0000BF7B0EBC74072EB573203FB0CF734BF86
:101CE000A2EBC742B2EBC74261EB57310CFB0EF7D8
:101CF000B0EBC70072EB57720CFB08F734BFA2EBD6
:101D0000C702B2EBC70261EB5771039F4FEA8161D3
:101D100041EA921104EBCC044FEAD1374FEA8262D8
:101D200006FB07FC42EA90124FEA80604FEA1C4C27
:101D30000CFB0BF7D21B03FB0CF761EB07010CFB51
:101D40000EF7B0EB074072EB17420CFB08F734BFFD
:101D5000A2EB0742B2EB074261EB17414FEA8C5509
:101D60004FEA910704EB9C2406FB07FC4FEA1C4C4E
:101D70000CFB0BF7B0EBC74072EB573203FB0CF7D1
:101D800034BFA2EBC742B2EBC74261EB57310CFB49
:101D90000EF7B0EBC70072EB57720CFB08F734BFBD
:101DA000A2EBC702B2EBC70261EB577115EB4C25F2
:101DB0004FEA816141EA92114FEA82624FEAD137DC
:101DC00042EA901206FB07FC44F100044FEA8060EF
:101DD0004FEA1C4C0CFB0BF7D21B03FB0CF761EB1F
:101DE00007010CFB0EF7B0EB074072EB17420CFB40
:101DF00008F734BFA2EB0742B2EB074261EB174191
:101E000015EB1C154FEA813141EA92414FEA8232CB
:101E100042EA90424FEA80304FEA0C7644F10004E7
:101E200048EA03434EEA0B484FF0000EB2EB080CB1
:101E300071EB030724BF624639464EEB0E0E4FF09E
:101E4000000B0018524149414BEB0B0BB2EB080C55
:101E500071EB03077BF1000B24BF624639464EEB62
:101E60000E0E4FF0000B0018524149414BEB0B0B8B
:101E7000B2EB080C71EB03077BF1000B24BF624649
:101E800039464EEB0E0E51EA020718BF46F0010626
:101E900016EB0E7655F1000254F1000103D5BDE8B2
:101EA0008901BDE80088BDE88901BDE80048B61990
:101EB000524141EB0101A3F10103704780807F7E15
:101EC0007D7C7B7A797877767675747372717170B0
:101ED0006F6E6E6D6C6C6B6A6A6968686766666562
:101EE0006464636362616160605F5F5E5E5D5D5CF0
:101EF0005C5B5B5A5A595958585757565655555561
:101F00005454535352525251515050504F4F4F4EC0
:101F10004E4D4D4D4C4C4C4B4B4B4A4A4A4949490E
:101F20004848484747474746464645454544444450
:101F3000444343434342424242414141002B26D461
:101F4000770021D01CB54FEA370703B44FF01000DB
:101F50004FF010014FF000000FBCBDE810400BF136
:101F6000010BBBF1010F08BF5FEA170722BF12F197
:101F7000010211F101014FF0004143F1000300F0B3
:101F8000004043EA00007047F9D35708DAE746EA11
:101F9000064613F1400F4FEA16461FDD13F1200FDE
:101FA000DFBF16430A46002120335B42C8D0C3F18D
:101FB000200746EA064602FA07F74FEA164646EABF
:101FC0000706C3F1200722FA03F201FA07F721FA04
:101FD00003F14FF0000342EA0702B1E746EA0206C6
:101FE00046EA06464FEA164646EA0106BCBF46EAFE
:101FF0000646360C4FF000034FF000024FF0000190
:102000009EE72DE9C048934630B491E8380007C8F0
:1020100031EA400C48BF34EA430C03D5FFF7F2FD28
:10202000FFF78CFFF0BCBDE800882DE9C04893465F
:1020300030B491E8380007C810F0804F08BF13F0A3
:10204000804F03D100F005F8FFF778FFF0BCBDE842
:10205000008820F07F4780EA030023F07F4C07EBE5
:102060000C03A3F57C5300F00040A3F1FE0392F0B3
:10207000000F00F0B38095F0000F00F077802DE99D
:1020800001494FEA11404FEA144621EA004800FB9B
:1020900006FC24EA064708FB06F607FB08F800FBE7
:1020A00007F718EB06484CEB164C4FEA124B18EBAF
:1020B00007484FEA15464CEB174022EA0B4E0BFB44
:1020C00006FC25EA06470EFB06F607FB0EFE0BFB99
:1020D00007F71EEB064E4CEB164C4FF000061EEBBE
:1020E000074E4CEB174B18EB0B0840F1000018EBB8
:1020F0000E0B58EB000840F100008F1A4FF0000162
:102100003CBFC943661B14BFB5EB040C00213CBFA8
:10211000C943F61B4FEA17444EEA8E0E27EA0445E0
:102120004FEA1C4704FB07622CEA074C05FB07F744
:102130000CFB05F604FB0CFC16EB074642EB1742C2
:1021400016EB0C4642EB1C421BEB060658EB020258
:10215000414146EA9E0601D5BDE80189B6195241C2
:1021600041EB0101A3F10103BDE801894FEA1445E8
:102170004FEA114724EA054621EA074C05FB07F41C
:1021800006FB07F70CFB06F105FB0CFC11EB074106
:1021900044EB17444FEA124711EB0C4144EB1C444B
:1021A00022EA074C05FB07F206FB07F70CFB06F6D5
:1021B00005FB0CFC16EB074642EB174216EB0C46F0
:1021C00042EB1C456A1854F1000148BF7047B6192C
:1021D000524141EB0101A3F10103704795F0000F5B
:1021E00037D04FEA11424FEA144721EA024624EA67
:1021F000074C02FB07F106FB07F70CFB06F402FB9A
:102200000CFC14EB074441EB17414FEA154714EB64
:102210000C4441EB1C4125EA074C02FB07F506FB89
:1022200007F70CFB06F602FB0CFC16EB074645EB2A
:10223000174516EB0C4645EB1C42121951F10001F3
:1022400048BF7047B619524141EB0101A3F10103A8
:1022500070474FEA14454FEA114724EA054621EA40
:10226000074C05FB07F106FB07F70CFB06F24FF0E6
:10227000000605FB0CFC12EB074241EB174112EB89
:102280000C4251EB1C4148BF7047921841EB0101D1
:10229000A3F1010370470029816802D041F00101D8
:1022A00001E021F00101816070470000084B10B58A
:1022B000D3F8042307490A40D0E900142143D0E9A8
:1022C0000240044321431143C3F8041310BD00002E
:1022D00000200140E030FCFFC06C80B27047024635
:1022E000002012680A4200D00120704730B54268D1
:1022F0000F4B0C791A400B6842EA042213434360E7
:1023000082680C4B4D791A40D1E9034323438C6812
:1023100044EA4504234313438360C26A097D22F4DF
:102320007002491EC9B242EA0151C16230BD0000CB
:10233000FFFEFFFCFDF7FFC070B5072609290AD98B
:10234000C568A1F10A0404EB4404A640B543A340C8
:102350001D43C56007E0056901EB4104A640B54394
:10236000A3401D4305611F23072A09D2446B521E57
:1023700002EB820293409C4391400C43446370BD46
:102380000D2A09D2046BD21F02EB820293409C43B8
:1023900091400C43046370BDC46A0D3A02EB8202A3
:1023A00093409C4391400C43C46270BD816841F0EE
:1023B00080418160704700F00F01000900EB800050
:1023C00001EB4000C0B27047FEE7000070B500248A
:1023D000012003F067FE174D0020C5F8A402142069
:1023E00003F0D4FD0120C5F8A4021E2003F0D0FDA7
:1023F000002003F057FE03E00120641C03F0C8FD39
:10240000D5F8240210B1642CF6D30BE0642C09D269
:1024100003E00120641C03F0BBFDD5F8240218B1D1
:10242000642C04D3012070BD642CF2D3FAE70020A1
:1024300070BD00000000434270470A21B0FBF1F27A
:1024400001FB1202B0FBF1F042EA0010C0B270478B
:1024500010B5082000F072F8012811D108F004FB33
:1024600008490A68821AB2F5967F04D3064A13789F
:102470005B1C13700860BDE81040082000F058B8DD
:1024800010BD0000BC0000201000002070B510201E
:1024900000F054F8012816D108F0E6FA0A4D044677
:1024A0002868201AB0F5967F08D3084900200860F4
:1024B00007490870012004F034FF2C60BDE870402B
:1024C000102000F035B870BDBC00002020000020B6
:1024D0000300002038B5002000905020EFF3118455
:1024E00080F31188BFF34F8FBFF36F8F4FF4807568
:1024F000284600F023F8012808D10B486A464021FD
:10250000006807F04FFE284600F012F8009838B136
:1025100006494FF080500860BFF34F8FBFF36F8FB5
:1025200084F3118838BD00007800002004ED00E03D
:102530000149086070470000143C0140034A01460D
:10254000002012680A4200D001207047143C01406C
:1025500030B51A4A8379016853B313688B4313600B
:10256000111D0B680468A3430B60017911440B68CB
:10257000046823430B60114B083319680468A143B6
:1025800019601C1D21680568A94321604179102943
:1025900005D011440A68006802430A6030BD19681A
:1025A000026811431960216800680143216030BD51
:1025B0000079104402688A43026030BD003C01404B
:1025C00070B50B4E0546002428787F2801D90222D9
:1025D00000E0012256F824002946FEF761F928B1EF
:1025E000641CBC2CF0D34FF0FF3070BD204670BD92
:1025F000AC010020F0B5002201274FF0030C0B685E
:1026000007FA02F52B40AB422CD1066853000CFAB6
:1026100003F4A64306600E79D0F800E09E4046EA37
:102620000E0606600E79012E01D0022E12D18668A8
:10263000A64386604E79D0F808E09E4046EA0E0632
:1026400086604668AE43466045688E799640B6B26D
:1026500035434560C568A543C560CC799C40C368D7
:102660001C43C460521C102AC9D3F0BD4B07DB0EBB
:102670009A40C90810B500EB8100016A0F249C4004
:10268000A1430162016A1143016210BD01837047D9
:10269000FEE7000070B50D4C0025C4F8A0520C48B0
:1026A000016821F440210160016841F4802101604A
:1026B000C4F8A452022004F5287403F069FC012038
:1026C0002060022003F064FC256070BD0080404261
:1026D000000402401CB50121022000F0CFFA4FF4A3
:1026E0004070012400908DF8044000208DF8060011
:1026F00003208DF805008DF8074069460448FFF770
:1027000079FF0448C0F8A042C0F8A4421CBD0000F4
:10271000000402400080404270B50D4C0026C4F811
:10272000A0620C48016821F440210160016841F475
:10273000802101600125C4F8A452022004F5287408
:1027400003F026FC2560022003F022FC266070BD09
:1027500000804042000402402DE9F04781461648BF
:102760000024016821F44021016001680160134EDA
:10277000254627464FF00108C6F8A072022003F054
:1027800007FCC6F8A0826006040ED6F8240208B141
:10279000641CE4B2012003F0FBFB6D1CEDB2082DBC
:1027A000EAD3B9F1000F04D0FFF774FF2046BDE86B
:1027B000F087FFF7B1FFF9E70004024000804042D4
:1027C0002DE9F04105461448016821F440210160DB
:1027D000016841F480210160104E0027C6F8A07204
:1027E0003C464FF00108E809C6F8A4026806050E49
:1027F000022003F0CDFBC6F8A082022003F0C8FB44
:10280000C6F8A072022003F0C3FB641CE4B2082CDB
:10281000E9D3BDE8F081000000040240008040429E
:1028200070B50D48016821F440210160016841F450
:1028300080210160094C0120C4F8A402C4F8A00260
:10284000042004F5287403F0A3FB00256560042030
:1028500003F09EFB256070BD0004024000804042F2
:102860000E4810B5016821F440210160016841F46F
:10287000802101600A4C0020C4F8A002C4F8A40220
:10288000042004F5287403F083FB012020606060BD
:10289000BDE81040042003F07BBB000000040240B0
:1028A0000080404270B512480024016821F44021A4
:1028B0000160016801600F4D0126C5F8A462304631
:1028C00003F066FBC5F8A062012003F061FB07E09E
:1028D000641CE4B2FA2C03D9FFF7C2FF012070BDDB
:1028E000D5F824020028F3D1C5F8A00270BD00007D
:1028F000000402400080404210B50446000A00F087
:102900003DFEE0B2BDE8104000F038BE2DE9FC41CC
:102910000121302000F0B2F901208DF804000020E0
:102920008DF8060003218DF805100D4E4FF4C0659B
:102930008DF80700009569463046FFF75BFE094FAA
:102940002C01694638460094FFF754FE294630466C
:10295000FFF79CFE21463846FFF798FEBDE8FC8154
:10296000001402400010024010B507F0DDF80749DE
:102970000120C1F8A402C1F8A8020549C1F8B402B7
:10298000C1F8B802BDE8104007F0EEB8008042423E
:102990000000424210B507F0C7F807490020C1F80F
:1029A000A402C1F8A8020549C1F8B402C1F8B802EE
:1029B000BDE8104007F0D8B8008042420000424213
:1029C00010B5FFF787FE80216B2000F0CCF8642063
:1029D00003F0DCFA00216B2000F0C5F8032000F0C2
:1029E0008EF8002000F086F8322000F0A5F80021D3
:1029F000382000F0B8F800216A2000F0B4F8002177
:102A0000232000F0B0F88021372000F0ACF87520CA
:102A100000F01EF8044601460AA0FDF733FD682CBD
:102A200003D0702C01D0012010BD01216B2000F0DB
:102A30009AF800216C2000F096F8322000F07CF823
:102A4000002010BD5245533D25580D0A00000000DE
:102A500010B50446FFF7E4FED020FFF7B1FEFFF704
:102A600021FF2046FFF7ACFEFFF71CFFFFF7D8FE63
:102A7000D120FFF7A5FEFFF715FF0020FFF76CFE42
:102A80000446FFF7EDFE204610BD2DE9F0411C463F
:102A900015460F460646FFF7C3FE7006000EFFF709
:102AA0008FFEFFF7FFFE20B1FFF7DAFE0120BDE841
:102AB000F0813846FFF784FEFFF7F4FEFFF7B0FE23
:102AC000012000EB4600C0B2FFF77AFEFFF7EAFEF6
:102AD00008E0012D0CD00120FFF73EFE6D1E04F82A
:102AE000010BEDB2002DF4D1FFF7BAFE0020DEE7B6
:102AF0000020F1E7C006010E1C2000F034B8C0062B
:102B0000010E1B2000F02FB8BC2801D3012110E0DA
:102B1000622801D302210CE02A2801D3032108E016
:102B2000142801D3042104E00A2801D3052100E080
:102B300006211A2000F017B810B504464FF47A7039
:102B4000844201D9044602E0042C00D20424B0FBE4
:102B5000F4F0401EC1B2192000F005F86008BDE88D
:102B60001040FFF7D1BF70B50C460546FFF758FE81
:102B7000D020FFF725FEFFF795FE50B92846FFF756
:102B80001FFEFFF78FFE2046FFF71AFEFFF78AFEB3
:102B900018B1FFF765FE012070BDFFF761FE002050
:102BA00070BD2DE9F0411D4616460C460746FFF75D
:102BB00037FE7806000EFFF703FEFFF773FE60B9DD
:102BC0002046FFF7FDFDFFF76DFE00240CE0285DB9
:102BD000FFF7F6FDFFF766FE20B1FFF741FE01208B
:102BE000BDE8F081641CE4B2B442F0D3FFF738FED4
:102BF0000020F5E7FEE7704730B50F23C278017873
:102C00000125FAB1144A126801F1E02102F4E062F0
:102C1000C2F5E062C2F30722C2F10404D340427855
:102C2000A24084781C401443220181F800240078DB
:102C300000F01F018D404009800000F1E020C0F845
:102C4000005130BD01F01F0085404809800000F1AF
:102C5000E020C0F8805130BD0CED00E0024908438F
:102C600002490860704700000000FA050CED00E022
:102C7000014908627047000000000E42044A002922
:102C8000116801D0014300E08143116070470000EA
:102C900030380240044A0029116801D0014300E0A5
:102CA000814311607047000040380240044A002907
:102CB000116801D0014300E08143116070470000BA
:102CC0004438024070B5204B1968204C11F00C01BB
:102CD00004D06610042903D0082903D004601BE047
:102CE000066019E0184A121F1168C1F38055116877
:102CF00001F03F0115B1B6FBF1F101E0B4FBF1F1D8
:102D000014681268C4F388146143C2F30142521C70
:102D10005200B1FBF2F1016019680F2202EA1111B1
:102D20000B4A545C0168E14041601C68072505EAD4
:102D30009424145D21FA04F484601B6805EA53337B
:102D4000D25CD140C16070BD083802400024F4005C
:102D50002801002002460020510901290BD0022938
:102D60000CD00849096802F01F02012393400B426E
:102D700000D00120704703497439F3E70149091F66
:102D8000F0E7000074380240014908607047000015
:102D9000800E474201490860704700003C0E4742E0
:102DA000C0F30121032907D1074B1968074A21F411
:102DB000F81102400A431A60034968310A68C0F3F7
:102DC0000B0002430A60704708380240FFFCFF0F07
:102DD00038B50022124C0092CA222260532222608F
:102DE0000F4A1C3A0029116802D00143116012E019
:102DF000814311600A4A183A95131168009B01EA51
:102E000010215B1C0093AB4201D00029F5D0116862
:102E100011EA102000D00120FF21216038BD000000
:102E20002428004010B54FF48054204600F094F858
:102E300000281BD00E4A0021C2F8A412C2F8A81222
:102E40000C4AC2F8B412C2F8B812204600F02AF8B0
:102E50006001FFF76DFB241100212046FFF7B8FF4A
:102E60002046BDE810400121FFF7B2BF10BD0000B1
:102E70000080424200004242010901EB810100F062
:102E80000F0000EB4100C0B27047002103E0491C75
:102E90000A38C9B2C0B20A28F9D2090740EA11605B
:102EA00070470000C0F30F1040F08000C14303489A
:102EB000026802F080021143016070470C28004054
:102EC00008B50D49002000900868400612D44FF064
:102ED000FF3008608B130868009A00F04000521C15
:102EE00000929A4201D00028F5D00868400601D42B
:102EF000002008BD012008BD0C28004002480168E0
:102F000021F08001016070470C280040020010B5DC
:102F10000F480C4601680F4801EA00014FEA1140D2
:102F2000E070C1F30423637001F03F03A370C1F3A9
:102F3000423121700AD1FFF79FFFE0706078FFF700
:102F40009BFF6070A078FFF797FFA07010BD000096
:102F5000042800403FFFFF000B4A0021126802F0E6
:102F60000403094A383A126803EAD03302401A438C
:102F7000064B1B6803EA101003D00004000C00D0BD
:102F80000121084670470000402800400C280040FE
:102F9000020010B510480C460168104801EA000113
:102FA000C1F305402070C1F30623637001F07F0375
:102FB000A3704FF0400303EA1141E1700AD1FFF71B
:102FC0005BFF20706078FFF757FF6070A078FFF715
:102FD00053FFA07010BD0000002800407F7F7F00DD
:102FE00030B50E4DCA222A6053222A600B4C0B4B7F
:102FF0001C3C1C33002920F00402216800F004006E
:1030000004D0114321601968014303E0914321601A
:10301000196881431960FF20286030BD24280040D2
:1030200070B5124D04460026CA202860532028603F
:10303000FFF746FFA8B10D481C38016821F0400198
:10304000016001682268114301600848A1681438D2
:1030500001600168A28841EA02410160FFF74EFF6A
:103060000126FF202860304670BD00002428004063
:1030700008B5034901EB80000090006808BD00001E
:103080005028004070B514460D46264A00210028FD
:1030900010684FEA406005D000281CDA2078FFF75E
:1030A000EBFE19E0002800DBE1702078FFF7EDFE71
:1030B00006046078FFF7E9FE46EA0026A078FFF7ED
:1030C000E4FE0643E07846EA0046207BFFF7DDFE9B
:1030D00046EA006010E0E170207BFFF7CDFEA078AB
:1030E0002178E27840EA01406178090241EA024130
:1030F0000843217B40EA0160A168CA220843616855
:10310000084308491C310A6053220A60B5F5807FE4
:1031100004D00A1F1060FF20086070BD014A1432FD
:10312000F8E700000828004070B50C4600260100B2
:1031300060780FD0FFF7A0FEA078FFF79DFEA07883
:10314000E17840EA014560782178000240EA4130A8
:10315000054315E0C10603D520F010000A30607069
:10316000E078FFF792FE05046078FFF78EFE45EAEF
:103170000025A078FFF789FE0543207845EA403511
:103180000D4CCA20206053202060FFF799FE78B1D3
:103190000A480540084820380560FFF7AFFE06489A
:1031A0001C380068800602D400F07EF800B10126C9
:1031B000FF202060304670BD242800403FFFFF0004
:1031C0002DE9F0410C460026234F01002078396894
:1031D00032464FEA416104D0002930DAFFF74CFE55
:1031E0002EE0002900DBE270FFF74FFE0504607857
:1031F000FFF74BFE45EA0025A078FFF746FE0543A2
:10320000E07845EA0045144CCA201C342060532065
:103210002060FFF755FE68B1104805400E48083899
:103220000560FFF76BFE3868800602D400F03CF8BA
:1032300000B10126FF2020603046BDE8F081E27039
:10324000A078217840EA01456078E178000240EA00
:1032500001400543D7E70000082800407F7F7F003A
:103260000549CA220A6053220A60034A103A1060D4
:10327000FF200860704700002428004010B54FF47C
:1032800080442046FFF768FE00280AD00549012047
:1032900008602046FFF706FE2002BDE81040FFF759
:1032A00047B910BD1400002018B50020104B009045
:1032B000CA201860532018600D491839086820F09A
:1032C000A00008604FF400340868009A00F0200065
:1032D000521C0092A24201D00028F5D00868800656
:1032E00001D5012000E00020FF21196018BD000079
:1032F00024280040084ACA21116053211160064960
:103300001C390B6823F007030B600B6803430B6049
:10331000FF201060704700002428004018B50021ED
:10332000134B0091CA2119605321196010491C39AF
:103330000028086803D040F48060086014E020F49E
:10334000806008600A4918398C130868009A00F0F8
:103350000400521C0092A24201D00028F5D0086857
:10336000400701D4002000E00120FF21196018BDB2
:103370002428004008B5034A02EB80000090016059
:1033800008BD0000502800400029018802D041F00B
:10339000400101E021F04001018070470246002019
:1033A00012890A4200D001207047808970478181CC
:1033B000704730B502884C8802F441530A88CD88A2
:1033C00022438C882C4322430C8922434C8922437C
:1033D0008C892243CC8922431A430280828B22F4B7
:1033E00000628283098A018230BD000010B58A071D
:1033F00021F003040849120F21440F23D1F8084893
:1034000093409C43C1F80848D1F8083890400343E2
:10341000C1F8083810BD0000003001400CB5002292
:10342000274900920192086840F4803008604FF408
:10343000A043086800F4003001900098401C009000
:10344000019810B900989842F3D10868800334D5E8
:10345000012001901A484030026842F08052026018
:103460001848026842F44042026015480830026879
:103470000260026842F400420260026842F4A05214
:103480000260031F104A1A600A6842F080720A60E4
:103490000A689201FCD50D4940F205720A60016884
:1034A00021F003010160016841F00201016001683F
:1034B000C1F381010229FAD10CBD01920CBD0000BB
:1034C000003802400070004008544007003C0240B1
:1034D00010B5502080F31188BFF34F8FBFF36F8F6B
:1034E00007F0C8FA18B104494FF080500860002076
:1034F00080F3118810BD000004ED00E0124810B503
:10350000016841F4700101601048016841F0010157
:1035100001600E4A00210832116002680C4B1A400B
:103520000260031D0B4A1A60026822F480220260C6
:1035300006480C300160FFF771FF03494FF000604F
:103540008039086010BD000088ED00E000380240BE
:10355000FFFFF6FE1030002410B5074C0021C4F820
:103560009812C4F89C1204F5267405F0B3FF0120EC
:103570006060206010BD00000000434270B5064C42
:103580000021C4F898120125C4F89C5204F5267451
:1035900005F0A0FF256070BD0000434208B5002182
:1035A00000900348D0E90023084603F0D8FE08BD88
:1035B000A80000202DE9F04701210220FFF75EFB63
:1035C00001214020FFF75AFB01210803FFF76EFBA2
:1035D000934C28204FF00208206084F804800327D1
:1035E00067710025DFF83C92A571E57121464846D8
:1035F000FFF700F810202060012626716771A57181
:10360000E57121464846FEF7F5FF4FF4E070206073
:1036100026716771A571E57121468348FEF7EAFFBF
:10362000052203214846FFF721F8052211464846A6
:10363000FFF71CF87D4F00213846FFF7A5FE7C48B8
:103640004FF482710824058041808580A0F80680AF
:103650000681710241818481C58101463846FFF7A8
:10366000A8FE01213846FFF78FFE724FC7F8A0620F
:10367000C7F89C627048C0F89062C7F8A0526420F6
:1036800007F5277702F082FC7E60642002F07EFC62
:103690001120FFF761FF782002F078FCB220FFF7DD
:1036A0005BFF0C20FFF76AFF0C20FFF767FF28463F
:1036B000FFF764FF3320FFF761FF3320FFF75EFF62
:1036C0003520FFF749FF2846FFF758FF3620FFF760
:1036D00043FF2846FFF752FF3A20FFF73DFF052042
:1036E000FFF74CFFB720FFF737FF3520FFF746FF06
:1036F000BB20FFF731FF2D20FFF740FFC020FFF771
:103700002BFF2C20FFF73AFFC220FFF725FF3046A2
:10371000FFF734FFC320FFF71FFF1520FFF72EFF31
:10372000C420FFF719FF2020FFF728FFC620FFF76E
:1037300013FF0F20FFF722FFD020FFF70DFFA4207B
:10374000FFF71CFFA120FFF719FFD620FFF704FFAA
:10375000A120FFF713FFE020FFF7FEFE7020FFF728
:103760000DFF0520FFF70AFF0A20FFF707FF0B20D8
:10377000FFF704FF0A20FFF701FF2720FFF7FEFEF7
:103780002F20FFF7FBFE4420FFF7F8FE4720FFF74E
:10379000F5FE3720FFF7F2FE1420FFF7EFFE1420AE
:1037A000FFF7ECFE2920FFF7E9FE2F20FFF7E6FEEA
:1037B000E120FFF7D1FE7020FFF7E0FE0720FFF7C2
:1037C000DDFE0C20FFF7DAFE2046FFF7D7FE20468D
:1037D000FFF7D4FE0420FFF7D1FE2F20FFF7CEFE27
:1037E0003320FFF7CBFE4620FFF7C8FE1820FFF777
:1037F000C5FE1520FFF7C2FE1520FFF7BFFE2B20E8
:10380000FFF7BCFE2D20FFF7B9FE2120FFF7A4FE35
:103810002920FFF7A1FEBDE8F0472C20FFF79CBE52
:10382000B4000020000402400018024000300140B3
:10383000701400200000434200804042F8B51D4E45
:10384000002540F2255739463046009500F08EF8A5
:1038500018B3304600F018F9174CC1B2601C22783A
:103860007F2A03D211542278521C2270232902D0BD
:10387000D1B27F290DD3D1B200230D540F486A462F
:103880000D49006806F0C6FE25708021601CFDF71A
:10389000D1F83946304600F059F80098002807D092
:1038A00007494FF080500860BFF34F8FBFF36F8F11
:1038B000F8BD000000100140882C00207C00002092
:1038C00004ED00E0F8B51D4E002540F225573946BD
:1038D0003046009500F04AF818B3304600F0D4F8AE
:1038E000174CC1B2601C22787F2A03D2115422786F
:1038F000521C2270232902D0D1B27F290DD3D1B21C
:1039000000230D540F486A460D49006806F082FEF8
:1039100025708021601CFDF78DF83946304600F097
:1039200015F80098002807D007494FF0805008602C
:10393000BFF34F8FBFF36F8FF8BD0000004800400A
:10394000F42B00207C00002004ED00E00A0A012195
:103950009140C943018070470029818902D041F418
:10396000005101E021F400518181704770B501F0F0
:103970001F0501260024C1F3421306FA05F2012BAC
:103980000FD0022B0FD0838A4FEA112100881342F7
:1039900006FA01F600EA060001D000B10124204633
:1039A00070BD8389F0E7038AEEE710B5C1F34213D7
:1039B00001F01F040121A140012B07D0022B07D0E9
:1039C0001430002A026805D00A4304E00C30F8E7FE
:1039D0001030F6E78A43026010BD00007FB5044650
:1039E000008A0D46C98820F4405001432182A089F5
:1039F00041F20C618843A9882A8911436A890243EC
:103A00001143A181A08A20F44071A8890843A082B3
:103A10006846FFF757F91A48844202D01948844291
:103A200001D1039800E00298A189090400EBC001CC
:103A300001EB0010296801D5490000E08900B0FBC6
:103A4000F1F06422B0FBF2F109010B096FF01805E7
:103A50006B4300EB8300A3891D044FF0320306D5AE
:103A600003EBC000B0FBF2F000F0070005E003EB51
:103A70000010B0FBF2F000F00F00084320817FBD82
:103A800000100140001401408088C0F30800704716
:103A9000FEE703B401984100009850EAC12018BF26
:103AA00004204A0D18BF40F0010040F2FF72B2EB53
:103AB000515F08BF40F00200012808BF052002B096
:103AC000704700000000000070B5C1482DED020BEA
:103AD0002DED0E8B82B0119D25F000449FEDBEDBD5
:103AE0009FEDBFEB84423EDBA4F140511098A1F161
:103AF0007F6108430FD0BC48844202DC28D1109873
:103B000030B39DED100B02B0BDEC0E8B02B0BDE8E2
:103B1000704000F069BC9DED100B53EC1D2B51EC77
:103B2000100B07F039FC9DED100B41EC180B53EC1A
:103B30001E2B51EC100B07F02FFC53EC182B07F049
:103B40002BFA41EC100B02B0BDEC0E8B02B070BD35
:103B50000120FDF73DF802B0BDEC0E8B02B0BDE8D0
:103B6000704000F055BCA1489FEDA18B844256DA0D
:103B70009DED100BB4F1795F0ADA51EC100BFFF7F1
:103B800088FF042808BF00F053FC9DED100BDAE716
:103B900053EC102B51EC100B07F0FEFB41EC190B12
:103BA00095480621B0EE490AF0EE690A784400F023
:103BB0009FFB53EC192B51EC100B07F0EDFB41EC84
:103BC0001A0B8E48B0EE490AF0EE690A04217844D7
:103BD00000F08EFB53EC192B51EC100B07F0DCFBC3
:103BE00053EC182B07F0D8F941EC100B51EC1A0BE1
:103BF00053EC102B07F078FACDE900019DED000B96
:103C000053EC102B9DED100B51EC100B07F0C4FB87
:103C10009DED101B53EC112B07F0BEF9D2E09DED8A
:103C2000100B51EC100B02F05FFF53EC182B07F058
:103C3000B1FC9FED730BCDE9000153EC102B9DED12
:103C4000000B51EC100B07F0A7FB41EC190B6E4871
:103C50000621B0EE490AF0EE690A784400F048FB0C
:103C600053EC192B51EC100B07F096FB41EC1B0B9E
:103C70006648B0EE490AF0EE690A0421784400F083
:103C800037FB53EC192B51EC100B07F085FB53EC71
:103C9000182B07F081F941EC1C0B51EC190B05F0C6
:103CA00033FC41EC180B5A489FED5BABA04222DC81
:103CB00053EC1C2B51EC1B0B07F016FACDE900015D
:103CC0009DED000B51EC180B53EC102B07F064FB2F
:103CD00053EC182B07F060F953EC1A2B07F05CFB40
:103CE00053EC1D2B07F02EFD53EC1E2B07F052FC5E
:103CF00041EC100B5FE08DED008B002000909DEDFE
:103D0000000B51EC180B53EC102B07F045F99DED0F
:103D1000000B41EC1E0B53EC102B51EC100B07F079
:103D20003BFB53EC192B07F035FC53EC1E2B07F033
:103D3000DBF941EC190B53EC1C2B51EC1B0B07F07E
:103D4000D3F941EC1B0B53EC1A2B51EC190B07F078
:103D500023FB53EC1D2B07F01DFC41EC190B53EC1E
:103D60001A2B51EC180B07F017FB53EC1B2B07F029
:103D700013FB53EC192B07F0E5FC9DED000B41EC18
:103D8000180B53EC1A2B51EC100B07F005FB9FEDB1
:103D9000249B53EC192B07F0FDFB41EC100B51EC6D
:103DA000180B53EC102B07F0CDFC53EC192B07F03C
:103DB000F1FB41EC100B002D3FF7C5AE51EC100BA1
:103DC00007F0ACF841EC100BBDE60000000000006D
:103DD0000000F03F00000000075C143326A6913C71
:103DE000182D4454FB21F93F0000F07F0000E03F14
:103DF000000000000000F03F708A07007E8A070084
:103E0000000000000000E03FC2890700D0890700E1
:103E10003333EF3F000000000000000000000040CE
:103E2000182D4454FB21E93F70B59B482DED020B42
:103E30002DED068B079D25F00044A04218DC974825
:103E4000844202DC0AD1069840B19DED060BBDEC20
:103E5000068B02B0BDE8704000F0C6BA002DCCBFA2
:103E60009FED8F0B9FED900BBDEC068B02B070BDEC
:103E70008F48A04215DD8F48A042D8BF4FF0FF34D5
:103E800058DD9DED060B51EC100BFFF702FE0428E8
:103E900008BF00F0CDFA9DED060BBDEC068B02B01D
:103EA00070BD9DED060B51EC100B02F01DFECDE92F
:103EB000060181489FED828BA0423CDD8248A042F2
:103EC0001FDD00249FED82AB9DED060B53EC1A2BFA
:103ED00051EC100B07F060F89DED060B41EC190B4F
:103EE00053EC1A2B51EC100B07F056FA53EC182B2D
:103EF00007F028FC53EC192B07F0F6F8CDE9060182
:103F000049E09DED060B012453EC182B51EC100BEE
:103F100007F042F89DED060B41EC190B53EC182B02
:103F200051EC100B07F00EFC53EC192B07F0DCF8EA
:103F3000CDE906012FE06848A0421FDD02249FED75
:103F4000689B9DED060B53EC192B51EC100B07F001
:103F500023FA53EC182B07F01FF89DED060B41ECEC
:103F6000180B53EC192B51EC100B07F0EBFB53EC37
:103F7000182B07F0B9F8CDE906010CE09DED060B12
:103F8000032453EC102B9FED580B51EC100B07F052
:103F9000ABF8CDE906019DED060B53EC102B51EC6F
:103FA000100B07F0F9F941EC180B53EC182B07F044
:103FB000F3F941EC190B4E480621B0EE490AF0EE38
:103FC000690A784400F094F953EC182B51EC100B6B
:103FD00007F0E2F941EC180B4648B0EE490AF0EE62
:103FE000690A0521784400F083F953EC192B51EC50
:103FF000100B07F0D1F941EC100B51EC180B53ECFE
:10400000102B002C0EDA06F0C7FF9DED061B53ECBB
:10401000112B07F0C1F99DED061B53EC112B07F096
:10402000B9FA35E006F0B8FF9DED061B53EC112BF5
:1040300007F0B2F941EC100B2F48784400EBC400B4
:1040400090ED001B51EC100B53EC112B07F07AFB99
:104050009DED061B53EC112B07F074FB41EC100B8C
:104060002648784400EBC40090ED001B51EC100B87
:1040700053EC112B07F08EFA41EC100B002DA2BF70
:10408000BDEC068B02B070BD51EC100B06F046FF84
:1040900041EC100B01E70000000010440000F07F2D
:1040A000182D4454FB21F93F182D4454FB21F9BF2E
:1040B0000000DC3F0000203E0000F33F0000000055
:1040C000000000000000F03F0000E63F000000009C
:1040D00000000000000000400080034000000000DD
:1040E000000000000000F83F000000000000F0BFEA
:1040F0001A870700D08607005A8607001286070035
:1041000070B56B4E2DED040B2DED028B82B0DDF8FA
:104110001CC0DDE905235C422CF000411C4341EA50
:10412000D474049D22F00040B44205D86C422C4364
:1041300040EAD474B4420BD99DED061B9DED040BEF
:1041400002B0BDEC028B04B0BDE8704000F056B97F
:10415000ACF14054A4F17F641C430BD0022404EA68
:10416000AC7444EAD27405439FED538B9FED542BFE
:1041700007D015E09DED040B51EC100B01F0AAFEE9
:1041800042E0002C11BF012C9DED040B02B0BDECF0
:10419000028B04BF04B070BD022C38D0032C3BD07E
:1041A0000B439FED491B9FED4A0B0AD0B14218D13A
:1041B000B04209D121F0804120F080400791059064
:1041C0000FE0002A15DA10E0434B7B44002C08BFB7
:1041D00093ED000B0DD0012C10D0022C17D0032C26
:1041E0001AD0B0421DD1002A03DAB0EE410AF0EE37
:1041F000610A02B0BDEC028B04B070BD93ED000B00
:1042000051EC100B06F08AFE41EC100BF1E7B0EE1A
:10421000480AF0EE680AECE7B0EE420AF0EE620AF5
:10422000E7E7401A00153C28C8BF8DED000B19DCEC
:10423000BCF1000FBEBF10F13C0F9FED290B8DEDBF
:10424000000B0FDB9DED060B53EC102B9DED040BCB
:1042500051EC100B06F048FF02F046FC01F03AFE6C
:10426000CDE90001002C08BF9DED000BC1D0012C51
:1042700010D0022C9FED1C0B53EC102B9DED000B6E
:1042800051EC100B0DD007F05DFA53EC182B07F032
:1042900059FAB9E7019880F0004001909DED000BBC
:1042A000A7E707F04FFA53EC182B07F073F9ABE7C9
:1042B0000000F07F00000000182D4454FB2109404D
:1042C000182D4454FB2109C0182D4454FB21F9BF7B
:1042D000182D4454FB21F93F4285070000000000DF
:1042E0000000000000000000075C143326A6A13C7B
:1042F00070B504462DED028B4D1E00EBC500B0EEEF
:10430000408AF0EE608A90ED000B35F0060017D081
:1043100053EC182B51EC100B07F03EF841EC100B4E
:104320006D1E04EBC50090ED001B51EC100B53EC1F
:10433000112B06F031FE41EC100B35F00600E7D1F1
:10434000022D36D0042D1CD0062D1CBFBDEC028BD7
:1043500070BD53EC182B51EC100B07F01DF894EDC9
:104360000A1B53EC112B06F017FE53EC182B07F029
:1043700013F894ED081B53EC112B06F00DFE41ECE5
:10438000100B53EC182B51EC100B07F005F894EDC3
:10439000061B53EC112B06F0FFFD53EC182B06F017
:1043A000FBFF94ED040B53EC102B06F0F5FD41ECF4
:1043B000100B53EC182B51EC100B06F0EDFF94EDA5
:1043C000021B53EC112B06F0E7FD53EC182B06F003
:1043D000E3FF94ED001B53EC112B06F0DDFDBDEC6B
:1043E000028B41EC100B70BD10B553EC102B51EC4F
:1043F000100B06F0D1FD41EC100B10BD10B553ECC5
:10440000112B51EC100B06F0C7FD41EC100B10BD49
:104410009FED050B10B553EC102B51EC100B06F073
:1044200063FE41EC100B10BD000000000000000016
:104430009FED050B10B553EC102B51EC100B06F053
:10444000ABFF41EC100B10BD00000000000000109D
:1044500030380A2801D20120704700207047704789
:10446000FEB506460D460024684602F053FB0022C6
:104470009FED1B1A6B46012156F8220055F8227059
:10448000C01B00D5404200EE100A03EB8200B8EEDC
:10449000C00AD0ED000A20EE010AF5EEC00AF1EEE6
:1044A00010FA0DD0C0EE201AB7EE000A0D4F31EE13
:1044B000C00AB0EEC00A10EE100AB84207DC09E0EC
:1044C00010EE100A084F3844084FB84202D301FAE0
:1044D00002F00443521C032ACEDB2046FEBD00003E
:1044E00000008037295C0F3E666666C19A99D90044
:1044F00010B58CB001212020FEF7C0FB01218802FD
:10450000FEF7D4FB80200A9003208DF82C000AA926
:104510001448FEF76FF800244FF440300694CDE9BC
:10452000070406A80994FDF7C1FE4FF000708DF84E
:10453000044000908DF805400294049401200A4C38
:104540008DF8140069462046FDF7D0FE00230122B5
:1045500005212046FDF7F0FE01212046FDF79BFED8
:104560000CB010BD0014024000220140F0B5B3B001
:104570000025C8216846FCF77FFA1B4F00246E46D1
:104580003846FDF713FF02213846FDF7A8FE002844
:10459000F9D03846FDF7A0FE26F81400641C642C00
:1045A000EEDB00210020C1F163070AE006EB4004C6
:1045B00036F810306288934202D926F810206380C2
:1045C000401C8742F2DC491C6429EBDB0A2036F8E8
:1045D0001010401C0D445A28F9DB5020B5FBF0F0B8
:1045E00033B080B2F0BD000000220140164C00251F
:1045F0002079012807D0FFF7B9FF0646608206F050
:1046000033FA502E01D265621AE0616A01B9606224
:10461000616A401A40F2DC51884211D3E07878B9DF
:104620004FF0FF31606F06F0EFF8002002F079FEE6
:1046300000231A461946606F05F03AFF0120E0702A
:10464000C82005F043FBD3E70000002094B02021F0
:1046500002A8FCF711FA282248490AA8FCF7B0F989
:10466000474A4849002010730860486088604FF04E
:104670000A094FF03C0A01F1100BC86014E0B07950
:10468000317B884210D1002409E008EB840107EB5C
:1046900084000422FCF7D8F830B9641CE4B2B07985
:1046A0008442F2D3002D62D0DFF8D4804FF0FF3186
:1046B0004446D8F8740006F0A7F84FF6FF76304667
:1046C000FEF76CFFA07908B1002438E02020CDE986
:1046D000006000232CA24946282002F0B5FE32E0FB
:1046E00014FB0A9085B22B48372300901A462946BE
:1046F000142002F01CFE202705F10A0133460AAA05
:104700000D465020CDE9006702F09EFE202102A850
:10471000FCF7B2F90BEB84001FA18278009243787A
:104720001BF8242002A8FBF7B9FE002302AA2946A1
:104730005020CDE9006702F087FE641CE4B298F8CF
:1047400006008442CCD300231A4619464646D8F8C0
:10475000740005F0ADFEB0790A4930738200103163
:104760000848FCF72DF9DFF81C8000255F464FF460
:10477000FA7005F0ABFA002D96D180E72CBB00084B
:1047800000000020A00400204E6F20416C61726D7B
:104790000000000080390408253032643A253032A8
:1047A000643A253032640000444D4FF0FF3986B042
:1047B0004946686F06F028F84FF6FF773846FEF74F
:1047C000EDFEDFF8FC8037231A4650216420CDF837
:1047D000008002F0ACFD05F18C042026A078617801
:1047E000E27838A30096CDE90132CDE903103B46CB
:1047F0000022BE21282002F05AFECDE900760023D7
:1048000035A29621502002F01FFE207834A1009698
:10481000CDE9011096213B460022084602F047FEF2
:1048200000231A461946686F05F042FE234901200D
:104830008C31FEF76BFBA078E97A884202D1687868
:10484000002837D04946686F05F0DEFF37231A4647
:1048500050216420CDF8008002F069FDA0786178D5
:10486000E27818A30096CDE90132CDE903103B466A
:104870000022BE21282002F01AFECDE90076002396
:1048800015A29621502002F0DFFD207814A1009699
:10489000CDE9011096213B460022084602F007FEB2
:1048A00000231A461946686F05F002FEA078E872E8
:1048B00000206870C82005F009FAB7E70000002062
:1048C000B4AB03083230253032782F253032782FC0
:1048D0002530327800000000D0C7C6DA00000000A2
:1048E00025303178000000001AA086B007C802AB5E
:1048F0001B4E83E80700DFF86C804FF0FF3A4FF65D
:10490000FF774FF020094FF4FA755146706F05F0AC
:104910007BFF3846FEF742FE37231A4650216420BB
:10492000CDF8008002F003FDCDE90079002302AA52
:10493000BE21322002F088FD00231A461946706F0E
:1049400005F0B6FD0024284605F0C0F9002CFAD089
:10495000DBE70000B9A6C4DCB4FDCAB5CFD60000C1
:10496000000000201294030898B0002016901790C1
:10497000202102A8FCF780F820210AA8FCF77CF887
:1049800039480DF1480C394E0FC88CE80F004FF034
:10499000FF384146706F05F037FF354837230090E8
:1049A0001A465021642002F0C2FC20254FF6FF7405
:1049B000002330A296213220CDE9004502F044FDCB
:1049C00000232EA2BE213220CDE9004502F03CFD9D
:1049D00000231A461946706F05F06AFD4FF4FA7706
:1049E00017A916A801F036FBC8BB1698316F88428C
:1049F00035D04146706F05F007FF234612AA962175
:104A00008220CDE9004502F01FFD234612AABE21F7
:104A10008220CDE9004502F017FD1AA102A8169ADE
:104A2000FBF73CFD002302AA96218220CDE9004538
:104A300002F00AFD15A10AA8179AFBF72FFD002323
:104A40000AAABE218220CDE9004502F0FDFC002328
:104A50001A461946706F05F02BFD169830673846D8
:104A600005F034F9BCE700001CBB00080000002082
:104A7000F8DA0308CEC2B6C83A000000CAAAB6C81F
:104A80003A000000256420A1E600000025642052C1
:104A9000480000001AA086B007C802AB1B4E83E88E
:104AA0000700DFF86C804FF0FF3A4FF6FF774FF0CA
:104AB00020094FF4FA755146706F05F0A5FE38468F
:104AC000FEF76CFD37231A4650216420CDF8008094
:104AD00002F02DFCCDE90079002302AABE2132208C
:104AE00002F0B2FC00231A461946706F05F0E0FC94
:104AF0000024284605F0EAF8002CFAD0DBE7000095
:104B0000B9A6C4DCB4FDCAB5CFD6000000000020B1
:104B100056C303082DED028BA6B0402103A8FBF776
:104B2000ABFF402113A8FBF7A7FFDFF8F4A2BB4EB1
:104B30004FF4FA704FF00008CAF80000AAF180079D
:104B40004FF0FF31786F05F05FFEB5102846FEF795
:104B500025FDB448372300901A465021642002F006
:104B6000E6FB4FF02009CDE900590023AEA29621C3
:104B7000322002F069FCCDE900590023ACA2BE212D
:104B8000322002F061FC00231A461946786F05F0C6
:104B90008FFC0025DFF8A0B23AE005F065FFDFF8F2
:104BA0009C920746D9F81402012804D105F05CFF55
:104BB000C01B6428F6D323A9072002F020FD9DF82E
:104BC0008C009DF88D108007800B40EA01219DF834
:104BD0008E00014358464BF825109DF88F109DF824
:104BE00090208907890B41EA02219DF89120114309
:104BF000934A42F825105BF82510B14201D250F8D3
:104C0000256050F82520424501D950F825806D1CBB
:104C1000DAF800008542C0DB5BF825005E46804A7A
:104C2000723A02F17A01501E8DE807000B1F824A8A
:104C3000DAF80010824802F099FDDFF804B2B246BB
:104C40009FED808A7648754D4FF4FA730026036015
:104C500064205A46514651F8207001EB8003A3F5B9
:104C60008053C3F8707E52F8203002EB8007A7F51E
:104C70008057C7F8703E51F82030AB4201D251F84E
:104C8000205051F82030B34201D951F82060401C27
:104C9000B0F5FA7FDFDB4FF4C8770AEB870050F8F6
:104CA000048C05F0E1FE81466448D0F81402012826
:104CB00005D105F0D9FEA0EB09006428F4D323A99F
:104CC000072002F09CFC9DF88C009DF88D10800759
:104CD000800B40EA01219DF88E0001434AF827101D
:104CE0009DF88F109DF890208907890B41EA0221D9
:104CF0009DF8912011434BF827105AF827205AF8B5
:104D00002710424516D9A1EB080000EE100A701BCF
:104D100000EE900AB8EE400AB8EE601AC0EE010A42
:104D200020EE880ABDEEC00A10EE100A241A18D52B
:104D3000002416E0A8EB010000EE100A701BF8EE4C
:104D4000400A00EE100AB8EE401A80EE810A20EE0A
:104D5000080ABDEEC00A10EE100A0444FF2C00DD64
:104D6000FF247F1CB7F5FA7F97DB2D4A723A02F1D8
:104D70007A01501E8DE807000B1F1D1F2E4A29685F
:104D80002F4802F0F3FCA5F180060A21706F05F0B0
:104D90003BFDB07B012819D1A8683C2816DBA86828
:104DA000642813DC402103A8FBF766FEAA6826A14D
:104DB00003A8FBF773FB20214FF6FF70CDE900013C
:104DC000002303AA9621822002F03EFB707B01287B
:104DD00019D168685F2816DB6868642813DC4021F5
:104DE00013A8FBF749FE6A6817A113A8FBF756FB47
:104DF00020214FF6FF70CDE90001002313AABE2148
:104E0000822002F021FB00231A461946706F05F03C
:104E10004FFB4FF4FA7004F059FF13E7FFFF030054
:104E2000800000203C0A0408D0C4C2CA3A00000036
:104E3000D1AAD1F53A000000900C002000004242B7
:104E4000C004002000007F43253364000EB5DFF866
:104E500060800024DFF85C90DFF85CA0174D184EEE
:104E6000012702AA694601A802F008FF0028F8D12C
:104E7000009941450CDBC5F8A842C5F8A442C6F824
:104E8000B842C6F8B442C9F82040012002F049FAFD
:104E90000098504507DAC5F8A872C5F8A472C6F89C
:104EA000B872C6F8B472C82001F070F8D9E70000F3
:104EB00000007041000000200000A040008042423D
:104EC000000042420EB504F0EDF94FF6FF76304691
:104ED000FEF764FBCE48002100904FF48C73F02263
:104EE000084602F024FACB490120FEF70FF8C94921
:104EF0000120091DFEF74CF8C64C4FF0FF318C3CE9
:104F0000606F05F081FC1020CDE900600023C2A293
:104F100008218E2002F098FAC148202300901A46FA
:104F20000021B42002F003FA04F190052878FDF77F
:104F300042FA4FF05009BBA1CDF80090CDE9011025
:104F400000224F4633463C21104602F0B0FA0023BF
:104F5000B6A237215020CDE9006702F075FA6878D3
:104F6000FDF729FAAFA10097CDE9011033460022E1
:104F70003C21782002F09BFA00231A461946606F04
:104F800005F096FA2878FDF716FAE0716878FDF7D3
:104F900012FA2072FDF7E8FCAA460026208AC00714
:104FA00015D04FF6FF70FEF7F9FAE06A58B9994943
:104FB00005206039CDE9000100234FF400729CA167
:104FC0009C4805F017FD0020666304F0A5FE60789C
:104FD00000287AD08F490120091DFDF7D9FF8D499E
:104FE0000120FDF793FF52469AF80000FDF7E3F920
:104FF00007465078FDF7DFF90546607970B34FF04A
:10500000FF31606F05F000FC86A1CDF80090CDE97E
:1050100001174FF6FF78002243463C21104602F06C
:1050200046FA002381A237215020CDE9008902F001
:105030000BFA7CA1CDF80090CDE901154346002282
:105040003C21782002F033FA00231A461946606F9B
:1050500005F02EFAE7712572667135E0E079874236
:1050600017D04FF0FF31606F05F0CEFB6DA1CDF88A
:105070000090CDE9011700224FF6FF733C21104646
:1050800002F015FA00231A461946606F05F010FA6F
:10509000E771207A854217D04FF0FF31606F05F03D
:1050A000B3FB60A1CDF80090CDE901154FF6FF7379
:1050B00000223C21782002F0FAF900231A46194612
:1050C000606F05F0F5F9257266706069E8B3666196
:1050D00050490120091DFDF75BFF52469AF8000078
:1050E000FDF769F907465078FDF765F90546E0795F
:1050F000874217D04FF0FF31606F05F085FB49A163
:10510000CDF80090CDE9011700224FF6FF733C2146
:10511000104602F0CCF900231A461946606F05F0DC
:10512000C7F9E771207A854219D04FF0FF31606FDF
:1051300005F06AFB3BA1CDF80090CDE901150022F6
:105140003C214FF6FF73782000E008E002F0AFF951
:1051500000231A461946606F05F0AAF925725246D7
:105160009AF80000FDF727F900905078FDF723F931
:1051700083469078FDF71FF90546A078002740B1D7
:10518000A670FDF707FC01206072207105F06CFC31
:10519000E0660021284A94F806C011E002EB810085
:1051A000C3785BB190F80080009B984506D190F8D9
:1051B0000180D84502D18078A84204D0491CC9B2E8
:1051C0006145EBD34FB1607A48B9FDF7E3FB0120AD
:1051D0006072207105F048FCE066607A58B105F015
:1051E00043FCE16E401A47F23051884203D9FDF783
:1051F000BBFB667226719AF80100FDF7DCF8217A94
:10520000884200D066724FF4FA7004F05FFDC5E684
:10521000E6B805088C000020313030250000000081
:10522000128C030825303264000000003A000000B0
:105230007569310031550008B00400207CB5FDF7D8
:1052400065FB01F0D3FF02F023FAFDF7B9FB02F092
:10525000C7FD002001F0D8FAFFF74AF9FEF7AAF9D6
:1052600004F052FA4FF6FF70FEF798F92D48C82364
:1052700000901A461921142002F059F84FF47A755B
:10528000284604F023FD28490720CDE900014FF40A
:1052900000760023324625A1254805F0ABFB2248C5
:1052A00005241038CDE900400023324621A12248D0
:1052B00005F0A0FB1C4800231030CDE90040324629
:1052C0001EA1204805F096FB1F48012300901A46B6
:1052D00029461EA005F062FD134D443DA86605F069
:1052E000C3FB02460020034600900121A86E05F092
:1052F000A3FD05F16400CDE900400023324615A16D
:10530000174805F077FB05F15000CDE90040002378
:10531000324614A1144805F06DFBBDE87C40002026
:1053200004F0FABC66800408440000207470000099
:105330006154000872746300C54E00087573617291
:1053400074000000A55A0008B9A0000874696D65D2
:10535000720000006164635F6C696768740000003C
:10536000ED4500086D7075004D4E00088CB00024AE
:10537000202102A8FBF780FB00273E4638460A970B
:1053800001F042FA2F4DEE614FF0FF3A5146686F3F
:1053900005F03AFA4FF6FF763046FEF7FFF82A4856
:1053A000372300901A465021642001F0C0FF4FF0CF
:1053B0002008CDE90068002324A2A021822002F069
:1053C00043F800231A461946686F05F071F84FF448
:1053D000FA79E878012830D00AA800F0C2FF0A98CC
:1053E000E861E869B84220D0EA6919A102A8FBF790
:1053F00055F85146686F05F007FACDE90068474651
:10540000334614A2A021822002F01EF8002302AA33
:10541000A0218220CDE9006702F016F800231A4689
:105420001946686F05F044F8EF69641C642C04D3D6
:105430000AA800F096FF0A9F0024484604F046FCA4
:10544000C7E70000000000209AF2030830000000C7
:10545000256C750020202020202020200000000046
:105460001CB50126314D4FF48C780027694601A800
:1054700004F0DAF90446E86A40B334B3FDF774FA8D
:10548000A87A18BBAE72042C09D0022C0AD0012CC9
:105490000DD0BDF800003C280BD2022103E04FF4F0
:1054A000807100E02021A86F04F035FE0EE040215D
:1054B000F9E7822801D20821F5E7D22801D210218C
:1054C000F1E7404502D20421EDE7AF72286B48B303
:1054D0003CB3FDF749FAA87A20BBAE72042C08D081
:1054E000012C09D0BDF800003C280BD24FF400611C
:1054F00004E04FF4007101E04FF48061A86F04F004
:105500000AFE0FE0822802D24FF48051F6E7D2283B
:1055100002D24FF40051F1E7404503D24FF48041ED
:10552000ECE7AF72B42004F0D1FB9FE7000000204D
:105530001CB5A84D4FF0FF3B5946686F05F064F964
:105540004FF6FF794846FEF729F8A3A300220A2167
:10555000142001F0A5FAA2A303224921142001F08E
:105560009FFAA1A306228821142001F099FAA0A392
:105570000122C721142001F093FA00231A4619468C
:10558000686F04F095FF322700244FF49F7A0526B8
:105590004FF40078287801280FD105F065FAA96941
:1055A000411AB1F5967F03D3298A491C2982A86143
:1055B00004F0BAFA2C7004F0D7FA288AC00730D168
:1055C000A86C10B104F0A8FBAC64A86B10B104F097
:1055D000A3FBAC63286C10B104F09EFB2C64E86B59
:1055E00010B104F099FBEC635946686F05F00CF9B3
:1055F0004846FDF7D3FF00231A461946686F04F0AA
:1056000057FF686B48B9734800233430CDE9006018
:10561000424679A1794805F0EDF90020EC6204F0EA
:105620007BFB0097002301225146A86F04F0C2FDC6
:10563000810718D5A86C0028ACD15946686F05F0D1
:10564000E3F84846FDF7AAFF00231A461946686F9B
:1056500004F02EFF5F4842464830CDE90060002349
:1056600067A168484FE0410718D5A86B002891D181
:105670005946686F05F0C8F84846FDF78FFF0023CC
:105680001A461946686F04F013FF524842463830F4
:10569000CDE9006000235CA15C4834E0010718D527
:1056A000286C0028C8D15946686F05F0ADF8484607
:1056B000FDF774FF00231A461946686F04F0F8FEE0
:1056C000444842464030CDE90060002350A1524892
:1056D00019E0C1061AD5E86B0028ADD15946686FAC
:1056E00005F092F84846FDF759FF00231A4619467F
:1056F000686F04F0DDFE374800233C30CDE90060E0
:10570000424646A1474805F075F943E7C10540D533
:10571000A96BA86C2A6C01431143EA6B1143F4D0C6
:1057200010B104F0F9FAAC64A86B10B104F0F4FA0B
:10573000AC63286C10B104F0EFFA2C64E86B10B184
:1057400004F0EAFAEC635946686F05F05DF84846E4
:10575000FDF724FF20A300220A21142001F0A0F964
:105760001FA303224921142001F09AF91EA3062247
:105770008821142001F094F91DA30122C7211420CF
:1057800001F08EF900231A461946686F04F090FE66
:1057900000E78006B9D5E86A0028B6D05946686F98
:1057A00005F032F84846FDF7F9FE00231A4619467F
:1057B000686F04F07DFE074800233030CDE90060BB
:1057C000424619A1194805F015F90020EC6204F0D1
:1057D000A3FADFE600000020C8D52020C0FA0000B0
:1057E000C4D62020D6D30000D0C42020C2CA0000D6
:1057F000CEC2CAAAB6C8000072746300C54E0008C3
:1058000063616C00A9470008646874006949000876
:10581000616C61726D0000004D4600086865617240
:1058200074000000154B00087569320031580008FB
:105830001CB5834C4FF0FF3B5946606F04F0E4FF0A
:105840004FF6FF794846FDF7A9FE7EA305220A21FF
:10585000142001F025F97DA304224921142001F030
:105860001FF97DA307228821142001F019F97CA3D8
:105870000822C721142001F013F900231A46194603
:10588000606F04F015FE322700254FF4FC4A052610
:105890004FF400780097002301225146A06F04F0D6
:1058A00089FC010518D5E06C0028F3D15946606FDA
:1058B00004F0AAFF4846FDF771FE00231A46194678
:1058C000606F04F0F5FD5E4842464C30CDE9006063
:1058D000002366A167484FE0C10418D5A06D0028D9
:1058E000D8D15946606F04F08FFF4846FDF756FE49
:1058F00000231A461946606F04F0DAFD504842460C
:105900005830CDE9006000235BA15D4834E081049C
:1059100018D5E06D0028BDD15946606F04F074FFC2
:105920004846FDF73BFE00231A461946606F04F017
:10593000BFFD434842465C30CDE90060002351A1E1
:10594000524819E041041AD5206E0028A2D15946C8
:10595000606F04F059FF4846FDF720FE00231A4609
:105960001946606F04F0A4FD354800236030CDE98E
:105970000060424646A1484805F03CF88AE78105A8
:1059800040D5A16DE06CE26D01431143226E1143DD
:1059900080D010B104F0C0F9E564A06D10B104F03E
:1059A000BBF9A565E06D10B104F0B6F9E565206EB0
:1059B00010B104F0B1F925665946606F04F024FF78
:1059C0004846FDF7EBFD1FA305220A21142001F034
:1059D00067F81EA304224921142001F061F81EA3D8
:1059E00007228821142001F05BF81DA30822C7219B
:1059F000142001F055F800231A461946606F04F090
:105A000057FD47E74005B9D55946606F04F0FCFEE5
:105A10004846FDF7C3FD00231A461946606F04F09F
:105A200047FD074800232C30CDE9006042461BA10A
:105A30001B4804F0DFFF0020256304F06DF929E71F
:105A400000000020B2BD2020CAFD0000CEDECFDF66
:105A5000C9E8B1B800000000CFE02020BBFA000088
:105A6000C8CBC1B3CAB6B1F0000000007374657052
:105A7000000000006D5300087769726500000000A7
:105A8000555E000863616D6572610000E9480008B9
:105A90006661636500000000954A00087569310081
:105AA00031550008A2B0A74F4FF0010B642201A9A5
:105AB000F86F04F00DFE01287ED101ACA2A0611C9C
:105AC000FAF7E0FCA4A1601CFAF7ACFE00283CD079
:105AD000A4A1601CFAF7A0FEA2A10020FAF79CFE88
