:020000040800F2
:10000000A0620120D50300087F2900081D240008F4
:100010007D2900085D210008193800080000000053
:1000200000000000000000000000000015030008B0
:10003000CD210008000000007103000859320008BB
:10004000EF030008EF030008EF0300080530000885
:10005000EF030008EF030008EF030008EF030008B8
:10006000EF030008E521000821220008EF03000843
:10007000EF030008EF030008EF030008EF03000898
:10008000EF030008EF030008EF030008EF03000888
:10009000EF030008EF030008EF03000861220008E7
:1000A000EF030008EF030008EF030008EF03000868
:1000B000EF030008EF030008EF030008EF03000858
:1000C000EF030008EF030008EF030008EF03000848
:1000D000EF030008C5350008EF0300084D3600089F
:1000E000EF030008AD2B0008EF030008EF03000842
:1000F000EF030008EF030008EF030008EF03000818
:10010000EF030008EF030008EF030008EF03000807
:10011000EF030008EF030008EF030008EF030008F7
:10012000EF030008EF030008EF030008EF030008E7
:10013000EF030008EF030008EF030008EF030008D7
:10014000EF030008EF030008EF030008EF030008C7
:10015000EF030008EF030008EF030008EF030008B7
:10016000EF030008EF030008EF030008EF030008A7
:10017000EF030008EF030008EF030008EF03000897
:10018000EF030008EF03000800F002F800F0B2F8F7
:100190000AA090E8000C82448344AAF10107DA45E2
:1001A00001D100F0A7F8AFF2090EBAE80F0013F082
:1001B000010F18BFFB1A43F001031847C01C0600CB
:1001C000E01C06000A444FF0000C10F8013B13F04D
:1001D000070408BF10F8014B1D1108BF10F8015BA0
:1001E000641E05D010F8016B641E01F8016BF9D193
:1001F00013F0080F1EBF10F8014BAD1C0C1B09D1EA
:100200006D1E58BF01F801CBFAD505E014F8016B5B
:1002100001F8016B6D1EF9D59142D6D370470000ED
:100220000023002400250026103A28BF78C1FBD8FF
:10023000520728BF30C148BF0B6070476E2900F0DD
:100240009284702900F0E781662907F0728765299A
:1002500007F06F87672907F06C87612907F06B87C4
:1002600003681B0A28BF41F08001692900F058810A
:10027000642900F05581752900F052816F2900F042
:100280008B85782900F0B381E92900F02585E429E0
:1002900000F02285F52900F01F85EF2900F0888500
:1002A000F82900F0B2810368DB0928BF41F0800122
:1002B000632900F09484732900F09984E32901F004
:1002C000C181F32901F0C681002070471FB507F0F6
:1002D0002BFF01F079FA04000020002107F0F8FE5E
:1002E000401C60600020002107F008FFE0601FBD97
:1002F00010B510BD01F043FA1146FFF7E7FF05F016
:1003000071F901F021FB03B4FFF7F2FF03BC03F026
:10031000A3FA00002C4B19680868B0E8F04F80F38E
:100320000988BFF36F8F4FF0000080F3118870478A
:100330000000000008480068006880F308884FF05B
:10034000000080F3148862B661B6BFF34F8FBFF32D
:100350006F8F00DF00BF00BF08ED00E0DFF80C008A
:10036000016841F470010160704700BF88ED00E052
:10037000EFF30980BFF36F8F134B1A681EF0100F55
:1003800008BF20ED108A20E9F04F106009B44FF04B
:10039000500080F31188BFF34F8FBFF36F8F06F0CB
:1003A00053FF4FF0000080F3118809BC19680868FA
:1003B000B0E8F04F1EF0100F08BFB0EC108A80F3C9
:1003C0000988BFF36F8F704728010020EFF3058085
:1003D000704700000948804709480047FEE7FEE7EC
:1003E000FEE7FEE7FEE7FEE7FEE7FEE7FEE7FEE7E5
:1003F00004480549054A064B70470000853200084D
:1004000089010008A05C0120A0620120A05E0120FB
:10041000A05E0120704700001CB50C46064B7B44D3
:1004200069460090204600F0B8FB0446002069466B
:1004300000F0C6FB20461CBD9F0700000FB4044916
:1004400010B503AA029800F0D7FB10BC5DF814FBAE
:10045000140100200FB41CB5084B06AA7B44694662
:100460000090059800F099FB04460020694600F0D2
:10047000A7FB20461CBC5DF814FB000061070000D0
:1004800070B5044685690068C10601D5302600E0D4
:100490002026C00707D070BDD4E90121304690471F
:1004A000206A401C20626D1EF6D570BD70B50446F2
:1004B00085690078C00707D170BDD4E901212020EB
:1004C0009047206A401C20626D1EF6D570BD70B545
:1004D0000C460546012A05D02878800600D5EA6931
:1004E000002302E0012305E05B1C934202D2E05CA2
:1004F0000028F9D1A869E618C01AA861286A18442A
:1005000028622846FFF7BCFF04E0D5E9012114F872
:10051000010B9047B442F8D32846FFF7C7FF70BDE0
:100520002DE9F0410646002410687529314616A5CC
:1005300010D000F0ADFA002802DA404213A507E01F
:1005400031688A0701D512A502E0490704D511A533
:10055000012401E000F0A5FA00210A2206F1240797
:1005600009E0B0FBF2FCB0FBF2F302FB1C00303000
:1005700078541846491C0028F3D123462A463046B1
:10058000BDE8F04100F096BA000000002D00000028
:100590002B00000020000000F0B40D460188090582
:1005A00002D5214C7C4402E01F4C7C440E340021D7
:1005B00000F1240608E002F00F071209E75D42EAA5
:1005C00003721B097754491C52EA0307F3D10278DE
:1005D0000023120704D5702D06D009B1022311346F
:1005E0002246F0BC00F066BA01231034F8E770B57B
:1005F00004460D462146106800F053FA024629468B
:100600002046BDE870400023C6E7D21D22F0070354
:10061000D3E90023C0E70368126843F020030360B6
:100620000823C3610023B7E75E1406002DE9F05FDD
:10063000894604464FF0000ADFF874B1FB44C0F865
:1006400020A02046E1688847002874D0252806D0DD
:10065000D4E901219047206A401C2062F1E700267E
:100660005F462046E16888472028054607DB312D94
:1006700005D2781910F8200C08B10643F1E7B0074D
:1006800001D526F00406C4F81CA00027C4F818A061
:100690002A2D09D0284603F0D8F838B304EB870890
:1006A000303DC8F8185019E059F8041B204604EBF7
:1006B00087029161E1688847012F054618D1E069FA
:1006C000002820DA26F020061DE0D8F8180000EBFC
:1006D000800005EB40003038C8F818002046E1687B
:1006E0008847054603F0B1F80028EED1012F0AD063
:1006F0002E2D08D12046E16888477F1C0546022F31
:1007000046F02006C4DBA069002803DA404246F028
:100710000106A061F00701D026F010066C2D0BD069
:10072000682D09D04C2D39D06A2D35D0742D35D097
:100730007A2D33D016E038E0E1682F46204688470E
:10074000B842054609D16C2F26D04FF48060E1688D
:10075000064320468847054604E06C2F1AD04FF424
:10076000807006430DB3A5F14100192802D8203549
:1007700046F400664A462946204626604E46FFF764
:100780005DFD80B101280BD0F61D26F0070000F1B9
:10079000080956E74020E4E78020D8E70020D6E7A4
:1007A00006F104094DE7284652E7206ABDE8F09FAC
:1007B000EE13060070B5064600F066F904680546BB
:1007C00030460A22002100F0FDFA2C6070BD0000C6
:1007D000014A00F02FBB00008C04002030B5054614
:1007E0000B462A4613F8014B12F8010B08B1A04240
:1007F000F8D01CB1002802D06D1CF1E7284630BDAE
:1008000040EA010310B59B070FD1042A0DD310C88D
:1008100008C9121F9C42F8D020BA19BA884201D9DF
:10082000012010BD4FF0FF3010BD1AB1D30703D027
:10083000521C07E0002010BD10F8013B11F8014BDD
:100840001B1B07D110F8013B11F8014B1B1B01D1F9
:10085000921EF1D1184610BD40EA010370B59B0706
:100860002ED14FF00136042A2AD308C810C99D1B87
:100870009D43121F15EAC61517D0D8B2E1B2401A2F
:1008800050EA056110D198B2A1B2401A50EA054170
:100890000AD123F07F4024F07F41401A50EA05211D
:1008A00002D1180EA0EB146070BDA342DBD018BAC1
:1008B00021BA884201D9012070BD4FF0FF3070BDD0
:1008C0000AB9002070BD10F8013B11F8014B63B16B
:1008D000A3420AD1521E08D010F8013B11F8014B77
:1008E0001BB1A34201D1521EEDD1181B70BD032ACA
:1008F00040F2308010F0030C00F0158011F8013B3D
:10090000BCF1020F624498BF11F801CB00F8013B23
:1009100038BF11F8013BA2F1040298BF00F801CBE7
:1009200038BF00F8013B11F0030300F02580083ABE
:10093000C0F0088051F8043B083A51F804CBA0E815
:100940000810F5E7121D5CBF51F8043B40F8043B6A
:10095000AFF30080D20724BF11F8013B11F801CB9F
:1009600048BF11F8012B24BF00F8013B00F801CB70
:1009700048BF00F8012B704710B5203AC0F00B803B
:10098000B1E81850203AA0E81850B1E81850A0E893
:100990001850BFF4F5AF5FEA027C24BFB1E81850ED
:1009A000A0E8185044BF18C918C0BDE810405FEA5D
:1009B000827C24BF51F8043B40F8043B08BF7047D9
:1009C000D20728BF31F8023B48BF11F8012B28BFDE
:1009D00020F8023B48BF00F8012B704702F0FF03EC
:1009E00043EA032242EA024200F002B84FF000025A
:1009F0000429C0F0128010F0030C00F01B80CCF131
:100A0000040CBCF1020F18BF00F8012BA8BF20F89E
:100A1000022BA1EB0C0100F00DB85FEAC17C24BFF2
:100A200000F8012B00F8012B48BF00F8012B70479C
:100A30004FF0000200B5134694469646203922BF77
:100A4000A0E80C50A0E80C50B1F12001BFF4F7AFC2
:100A5000090728BFA0E80C5048BF0CC05DF804EBA4
:100A6000890028BF40F8042B08BF704748BF20F812
:100A7000022B11F0804F18BF00F8012B7047704710
:100A8000704770477047000000487047405C012085
:100A900009684A0501D540B27047C905FCD500B2C6
:100AA000704709684A0501D5C0B27047C905FCD531
:100AB00080B270472DE9F0470D46994692460446AC
:100AC00000F124080168880604D5E06921F01001CE
:100AD000216000E00120A84201DD471B00E0002763
:100AE000A1697A1902EB0900081AA0612078C006F2
:100AF00002D42046FFF7C4FC002608E0D4E9012117
:100B00001AF806009047206A401C761C20624E4569
:100B1000F4DB2078C0060AD52046FFF7B1FC06E0DA
:100B2000D4E9012130209047206A401C2062381E01
:100B3000A7F10107F4DC07E0D4E9012118F805006A
:100B40009047206A401C2062281EA5F10105F3DCB5
:100B50002046FFF7ABFC2078000602D50220BDE856
:100B6000F0870120FBE711680268006A530501D590
:100B700008700AE0D30501D5088006E0130603D506
:100B8000C217C1E9000200E00860012070470000C0
:100B900001694A1C02610878704700B58FB0CDE941
:100BA00001310021059105497944CDE90310114631
:100BB0006846FFF73BFD0FB000BD0000E5FFFFFFFB
:100BC0000A6802F8010B0A60704710B5436913B157
:100BD000AFF3008001E0FFF77AFC012010BD12782E
:100BE00000F124010A7000224A700122EDE7116829
:100BF0004FF0FF32E9E70000074B70B50D467B442C
:100C0000FFF7CBFF0446284600F077FD10B14FF008
:100C1000FF3070BD204670BD0B4500002DE9FF5F21
:100C200015468A460446DFF8AC80F8440027D8E928
:100C300000103E46CDE9001010E03AF816106A4662
:100C400002A800F05EFD411C07D02178890603D57B
:100C5000E269391891420DD80744761C2078800645
:100C600002D5E069B84205DDAE42E6DB3AF816008F
:100C70000028E2D1A069C01BA0612046FFF700FC5C
:100C8000D8E90010CDE90010002017E03AF818105C
:100C90006A4602A800F035FDB0F1FF3F81460BD057
:100CA00000250DF1080B05E0D4E901211BF8050032
:100CB00090476D1C4D45F7D308F10100B0428046C6
:100CC000E4DB206A384420622046FFF7EFFBBDE8F2
:100CD000FF9F0000120E06002DE9F0418046D21D54
:100CE00022F007020025D2E90002F52915A614D04A
:100CF000011E72F1000106DA0023D0EB030063EB62
:100D0000020211A608E0D8F800108B0701D50FA643
:100D100002E0490701D50EA601251146002408F17D
:100D2000240704E000F0B4F830323A55641C50EA6D
:100D30000102F7D12B46324621464046BDE8F0413C
:100D4000FFF7B8BE000000002D0000002B000000DF
:100D50002000000030B4002100F1240408E002F07B
:100D60000705D208303542EA4372DB086554491C56
:100D700052EA0305F3D10468002310A2250708D521
:100D800004F020040C4304D0C46901230CA2641EA7
:100D9000C46130BCFFF78EBE10B504462146106812
:100DA000FFF77FFE02462046BDE810400023D1E752
:100DB000D21D22F00701D1E90023CBE7000000009B
:100DC000300000002DE9F04791460F46804604466A
:100DD000002614F8015B2DB100F052F80068405D68
:100DE000C007F6D12B2D02D02D2D18D0641E4A46F7
:100DF0003946204600F032FC27B13968A14201D1C2
:100E0000C7F800804FF0020471050BD5404200285E
:100E100003DDFFF739FE0460A007BDE8F08746F464
:100E20008066E4E70028F8DAFFF72EFE04606FF032
:100E30000040F2E72DE9F04115460E46040002D1CC
:100E40002C6804B90BA4204600F08BFC04442078E5
:100E500070B127463146384600F073FC04442078D0
:100E600010B1002004F8010B38462C60BDE8F08179
:100E70000027F9E70000000000487047405C0120AF
:100E800010B500F0A1FC001D10BD00BF45720000B0
:100E900030B5B0F10A024FEA900E71F100034EEA4C
:100EA000817EB0EB0E0061EB91014FEA101E4EEA1D
:100EB000017E10EB0E0041EB11114FEA102E4EEAAD
:100EC000016E10EB0E0041EB11214FEA104E4EEA7D
:100ED000014E10EB0E0041EB1141401841F10001B1
:100EE0004FEAD00040EA41704FEAD10110EB800593
:100EF0004FEA810444EA907444EB01046D1944EB19
:100F00000404521BA3414FF0000348BF0A3200D52E
:100F100030BD401C41F1000130BD70472DE9FF4F4D
:100F20000C461E464FF0FF378BB0D2E90001DDF8CA
:100F300060800A908A46C1F30A5505B93D460021F2
:100F400008464FF00000BAF1000F00F4400005DA47
:100F500000EB80004FF4400101EA50004FEA905945
:100F6000B9F1010F00DDB9460A9850EA4A000ED0E7
:100F700044F61050A5F2FF3545432F14B8F1000F89
:100F80001ED07542291E1EDDC9F100021CE0B8F119
:100F9000010F4FF0000001D0302103E0F24305E0E3
:100FA0002154401CB042FBDB30460022002121547A
:100FB0000B99C1F80880C1E900200FB0BDE8F08F9F
:100FC000BD1B6D1CDEE74A4600DA694206A800F048
:100FD0004DFC06AB93E8070003AB83E807005046DF
:100FE0000A9900F0F7FC8DE80700A0F500501F38C3
:100FF00000900398002D09DD42F21F014A46084483
:1010000003A90390684600F056FF08E0A0F50050E1
:101010004A461F3803A90390684600F060FF8DE838
:1010200007000004000C03D04FF0FF30410800E03F
:101030001046B8F1000F03D00022009215461EE0C2
:10104000751E05D4FFF724FF303262556D1EF9D5A9
:10105000B3460122084302D000227F1C04E020781E
:10106000302801D100227F1E002A099786D01DE07A
:10107000112D07DAFFF70CFF303262556D1C50EA74
:101080000102F5D1084302D00098C8B10EE000215A
:10109000681E05E0235C625C63542254401E491CB8
:1010A0008142F7DBAB46A81B401E0990002004F8E4
:1010B0000B000B98099AC0F80880C0E9002B7CE768
:1010C00011264FF0000859E72DE9F04F88460446F5
:1010D000D21D22F0070191B0D1E90001CDE90A014A
:1010E00002F09BFB02460B98C00F01D02D2007E0B9
:1010F0002068810701D52B2002E0202101EAC000F1
:10110000032A099001D0072A05DB03464146204601
:1011100000F05EFB0BE12078800601D5E06900E07D
:101120000620B8F1650F814606D0B8F1660F18D0D9
:10113000B8F1670F70D131E00020B9F1110F0090C4
:1011400001DB112301E009F101030AAA01A90CA89E
:10115000FFF7E4FEDDE90C70002609F10105834686
:1011600047E001204B4600904FF000470AAA01A932
:101170000CA8FFF7D3FEDDE90DB00C995D46002603
:1011800010B909F101000D18B9EB050003D4C0F145
:10119000FF3609F10105A5EB09002BE0B9F1010FBC
:1011A00001DA4FF001090020B9F1110F0090484613
:1011B00001DD112300E003460AAA01A90CA8FFF7EC
:1011C000ADFEDDE90C704D46002683462078000711
:1011D0000AD4AB4500DA5D4601A8012D04DD4119B2
:1011E00011F8011C302907D04F4502DA17F1040F1E
:1011F00004DA012082460FE06D1EEEE7002F02DCCC
:10120000ED1B3E4403E0781CA84200DD7D1CB81BAA
:1012100000F1010A4FF000472078000703D4AA45E7
:1012200001DB4FF0FF3A0021B7F1004F0DF1430809
:101230008DF8431024D002202B23002F01DA7F42A7
:101240002D230A21021EA0F1010000DC5FB197FBF3
:10125000F1FC97FBF1F201FB1C7C17460CF1300C02
:1012600008F801CDEEE7A8F1010003702188090517
:1012700001D5452100E06521A0F1010800F8011C1D
:1012800009980FA9A1EB0807FF1D00B10120411922
:1012900001EBEA70A1693844081A401EA061207869
:1012A000C00602D42046FFF7EBF8099828B1D4E92C
:1012B00001219047206A401C20622078C00622D578
:1012C0002046FFF7DDF81EE0002E04DBB34502DD0B
:1012D00001A8805D00E03020D4E901219047206A18
:1012E000401C2062761CAAF101005FEA000A0AD1C4
:1012F00000F06AFAC0680168405CD4E901219047B7
:10130000206A401C2062281EA5F10105DCDC07E0F4
:10131000D4E9012118F8010B9047206A401C206293
:10132000381EA7F10107F3DC2046FFF7BFF80320C2
:1013300011B043E62DE9F04F04460D46D21D22F0D0
:10134000070089B0D0E9009248461746394602F0B6
:1013500064FA0246F80F01D02D2307E020688107C8
:1013600001D52B2302E0202101EAC0038DF82030B3
:101370000BB1012000E00020032A824601D0072A99
:1013800004DB2946204600F023FA3DE12078800660
:1013900001D40D2500E0E569C7F30A560D2D49DAA1
:1013A00000214FEA175B08464FF00000002F00F4C1
:1013B000400007DA00EB80004FF4400100EBD070F2
:1013C00001EA60008115012901DD4FF0FF310022A3
:1013D0004FEA850CBCF1180F06D31346ACF1180088
:1013E0004FF08052C24003E04FF4801323FA0CF315
:1013F0000CF10C0CBCF1200F04D3ACF1200C09FA59
:101400000CF001E007FA0CF000294FF0004801DD74
:1014100018B90FE00ED140450CD319EB02095F411A
:1014200021B9404502D19F4329EA0209BBEB175F6E
:1014300000D0761C2088000502D57B48784402E065
:1014400079487844193808AA302302F80A30037C16
:101450000AF10101002E0AF1020A53546A4602DC25
:101460004FF0300101E04FF031014FF001088DF8ED
:10147000001002D0A6F2FF3603E059EA470100D07F
:101480006A4E002D02DC2178090704D54FF00208CE
:101490002E218DF80110C44600210BE0C7F3034351
:1014A0003F01C35C491C6D1E02F80830052908F194
:1014B000010801DA002DF1DC00210CE000EB1973CA
:1014C000491C1B786D1E082902F808304FEA0919DB
:1014D00008F1010801DA002DF0DC2178890602D537
:1014E00014E0A8F10108E04505DD02EB080111F860
:1014F000011C3029F5D0B8F1000F07DD02EB08011F
:1015000011F8011C2E2901D1A8F10108002D05DDDB
:101510003E2102F808106D1E08F10108407C002EE3
:1015200002F8080008F1010804DA2D20764202F8DA
:10153000080002E02B2002F808000A214FF47A701C
:10154000864208F101080BDB96FBF0F3303302F81A
:10155000083096FBF0F308F1010800FB136601E088
:10156000642E0CDB642096FBF0F3303302F8083075
:1015700096FBF0F308F1010800FB136601E00A2E68
:1015800006DB96FBF1F0303002F8080008F10108A4
:1015900096FBF1F001FB1060303002F80800A16901
:1015A00008F1010808EB050202EB0A00081AA06125
:1015B0002078C00602D42046FEF762FF216A08AEFA
:1015C00001EB0A00206204E0D4E9012116F8010BC6
:1015D0009047BAF1010AF7D22078C00602D520461A
:1015E000FEF74EFF6E4609E016F8010B3E280FD0BD
:1015F000D4E901219047206A401C2062B8F101081B
:10160000F2D22046FEF752FF09B00320BDE8F08F6A
:10161000206A2844206203E0D4E901213020904769
:101620006D1EEBD3F8E700001B06060002FCFFFF6F
:1016300010B5436913B1AFF3008001E0FFF7EEFA94
:10164000012010BD128800F1240182840022C2848E
:101650000122EDE711684FF0FF32E9E72DE9F05F75
:10166000824615468B4600270AF10104B9460078E8
:10167000302801D09DB113E014F8010B0127782820
:1016800003D0582801D045B10AE00DB1102D07D183
:10169000002714F8010B102502E0082500E00A25B8
:1016A0000026B0460EE005FB080005FB06F1012709
:1016B0001FFA80F801EB1046B6F5803F00D3B9461B
:1016C00014F8010B294600F0C3F80028EBDABBF14F
:1016D000000F05D00FB1641E00E05446CBF8004067
:1016E000B9F1000F06D0FFF7CFF902210160C81E43
:1016F000BDE8F09F48EA0640FAE7007B00F0800072
:10170000704770B516460C460546FFF7B9FB0368EF
:1017100093F80101012806D0FF2C0FD8185D68B19D
:1017200001202C7070BDD3F807013246214603F228
:10173000071303442846BDE8704018474FF0FF30B8
:1017400070BD30B503461D781DB10A4603E0AC42BA
:1017500001D1181A30BD12F8014B002CF7D15B1CD7
:10176000F1E730B503461D783DB10A4612F8014B4A
:101770001CB1AC42FAD15B1CF5E7181A30BD7546B6
:10178000FFF77AFBAE4605006946534620F0070096
:10179000854618B020B5FEF72BFEBDE820404FF07F
:1017A00000064FF000074FF000084FF0000B21F04B
:1017B0000701AC46ACE8C009ACE8C009ACE8C00918
:1017C000ACE8C0098D46704700487047605C012056
:1017D0002DE9F0411F46044603260168072A01F45B
:1017E000006004DB08B116A505E016A503E008B10A
:1017F00015A500E015A521F010002060A069C01E0D
:10180000A0610FB1401EA0612046FEF739FE4FB126
:10181000D4E9012138469047206A401C2062C01C50
:10182000206206E0206AFAE7D4E9012115F8010BED
:101830009047761EF8D22046FEF738FEBDE8F081CC
:101840004E414E006E616E00494E4600696E660064
:101850003A2800D2303820F02002412A01D3A2F1E8
:101860003700884201D34FF0FF3070472DE9F04731
:10187000814616468AB0334878440DC88DE80D007D
:1018800030487844801C03AC0DC884E80D0041F654
:101890009B300844372190FBF1F290FBF1F5A5F164
:1018A000800501FB12041B3C02D56442012000E0CC
:1018B0000020DFF890A080460027FA44AAF1BE0A73
:1018C0000DE0E00709D03246684607EB47010AEB16
:1018D000810100F004FB8DE8070064107F1C002CE0
:1018E000EFD1184F7F44AC3F18E0E80714D007EB66
:1018F00004100DF1180A90E80E008AE80E00C06886
:10190000F04201D198190890324606A903A800F0C8
:10191000E6FA03AB83E807006D10641C002DE4D1E8
:1019200032466946B8F1000F03A802D000F0C3FAAE
:1019300001E000F0D4FAC9E90001C9F808200AB0B2
:10194000BDE8F087700206000446AFF30080204631
:10195000FEF7D9FC4FF0013C50F8042B51F8043B42
:101960009A4221D1A2EB0C03934313EACC1317D173
:1019700050F8042B51F8043B9A4215D1A2EB0C030A
:10198000934313EACC130BD150F8042B51F8043BCA
:101990009A4209D1A2EB0C03934313EACC13DBD098
:1019A0004FF00000704700BFD01A01BAB1FA81F1C0
:1019B00001F0180122FA01F0CB40C1F12001DBB2A5
:1019C000C0B2C01A2CFA01F3D11A914311EAC31123
:1019D000E6D170475FEA400C08BF91F0000F4FEA74
:1019E0008C234FEAC12243EA51514FEA1C5018BFE1
:1019F00000F5F0404FEA300018BF41F000415FEAC7
:101A00006C5C00F02980BCF1FF3F08BF40F08040D3
:101A10007047130C06BF12044FF0100C4FF0000C6F
:101A2000130E04BF12020CF1080C130F04BF1201B5
:101A30000CF1040C930F04BF92000CF1020CD30FB5
:101A400004BF52000CF1010C11464FF00002A0F14E
:101A50001F00A0EB0C00704711F0004F08BF70474B
:101A600031F000413FF4D5AF0B0C06BF09044FF035
:101A7000100C4FF0000C0B0E04BF09020CF1080C07
:101A80000B0F04BF09010CF1040C8B0F04BF89007C
:101A90000CF1020CCB0F04BF49000CF1010CCCF18E
:101AA0002003A0EB0C0022FA03F302FA0CF241EA45
:101AB000030100F10100704720F07F4C80EA030031
:101AC00023F07F47ACEB070303F57C5300F00040A5
:101AD00003F1FF032DE980494FEA154B09B44FEAA2
:101AE000144325EA0B4E24EA03480FF2042606EBC2
:101AF000132749083E785FEA320203FB0667C7F501
:101B0000000707FB06F64FEA54374FEAD64606F1C0
:101B1000020607FB066CCCF1005C4FEA1C472CEA7E
:101B2000074C07FB06F40CFB06F504EB15464FEAE1
:101B3000961634BF00204FF000404FEAD13706FB25
:101B400007FC4FEA1C4C0CFB0BF7D21B03FB0CF7FA
:101B500061EB07010CFB0EF7B0EB074072EB17428D
:101B60000CFB08F734BFA2EB0742B2EB074261EB74
:101B700017414FEA0C444FEA910706FB07FC4FEA76
:101B80001C4C0CFB0BF7B0EBC74072EB573203FB5E
:101B90000CF734BFA2EBC742B2EBC74261EB57313F
:101BA0000CFB0EF7B0EBC70072EB57720CFB08F79B
:101BB00034BFA2EBC702B2EBC70261EB5771039FC0
:101BC0004FEA816141EA921104EBCC044FEAD1372C
:101BD0004FEA826206FB07FC42EA90124FEA8060FD
:101BE0004FEA1C4C0CFB0BF7D21B03FB0CF761EB11
:101BF00007010CFB0EF7B0EB074072EB17420CFB32
:101C000008F734BFA2EB0742B2EB074261EB174182
:101C10004FEA8C554FEA910704EB9C2406FB07FC26
:101C20004FEA1C4C0CFB0BF7B0EBC74072EB573282
:101C300003FB0CF734BFA2EBC742B2EBC74261EB28
:101C400057310CFB0EF7B0EBC70072EB57720CFB71
:101C500008F734BFA2EBC702B2EBC70261EB5771C2
:101C600015EB4C254FEA816141EA92114FEA8262FD
:101C70004FEAD13742EA901206FB07FC44F1000418
:101C80004FEA80604FEA1C4C0CFB0BF7D21B03FBA6
:101C90000CF761EB07010CFB0EF7B0EB074072EBA2
:101CA00017420CFB08F734BFA2EB0742B2EB074226
:101CB00061EB174115EB1C154FEA813141EA924166
:101CC0004FEA823242EA90424FEA80304FEA0C7685
:101CD00044F1000448EA03434EEA0B484FF0000E7B
:101CE000B2EB080C71EB030724BF624639464EEB9A
:101CF0000E0E4FF0000B0018524149414BEB0B0BFD
:101D0000B2EB080C71EB03077BF1000B24BF6246BA
:101D100039464EEB0E0E4FF0000B00185241494170
:101D20004BEB0B0BB2EB080C71EB03077BF1000BD9
:101D300024BF624639464EEB0E0E51EA020718BF29
:101D400046F0010616EB0E7655F1000254F1000143
:101D500003D5BDE88901BDE80088BDE88901BDE87B
:101D60000048B619524141EB0101A3F1010370474C
:101D700080807F7E7D7C7B7A7978777676757473C8
:101D8000727171706F6E6E6D6C6C6B6A6A69686887
:101D9000676666656464636362616160605F5F5E1D
:101DA0005E5D5D5C5C5B5B5A5A5959585857575693
:101DB00056555555545453535252525151505050F8
:101DC0004F4F4F4E4E4D4D4D4C4C4C4B4B4B4A4A4A
:101DD0004A4949494848484747474746464645458E
:101DE00045444444444343434342424242414141C7
:101DF000002B26D4770021D01CB54FEA370703B457
:101E00004FF010004FF010014FF000000FBCBDE884
:101E100010400BF1010BBBF1010F08BF5FEA170780
:101E200022BF12F1010211F101014FF0004143F113
:101E3000000300F0004043EA00007047F9D3570860
:101E4000DAE746EA064613F1400F4FEA16461FDD71
:101E500013F1200FDFBF16430A46002120335B42F7
:101E6000C8D0C3F1200746EA064602FA07F74FEA50
:101E7000164646EA0706C3F1200722FA03F201FAE2
:101E800007F721FA03F14FF0000342EA0702B1E736
:101E900046EA020646EA06464FEA164646EA0106C2
:101EA000BCBF46EA0646360C4FF000034FF0000276
:101EB0004FF000019EE72DE9C048934630B491E809
:101EC000380007C831EA400C48BF34EA430C03D558
:101ED000FFF7F2FDFFF78CFFF0BCBDE800882DE9AD
:101EE000C048934630B491E8380007C810F0804FDE
:101EF00008BF13F0804F03D100F005F8FFF778FF1B
:101F0000F0BCBDE8008820F07F4780EA030023F0A2
:101F10007F4C07EB0C03A3F57C5300F00040A3F1CA
:101F2000FE0392F0000F00F0B38095F0000F00F078
:101F300077802DE901494FEA11404FEA144621EA22
:101F4000004800FB06FC24EA064708FB06F607FBF0
:101F500008F800FB07F718EB06484CEB164C4FEA65
:101F6000124B18EB07484FEA15464CEB174022EA94
:101F70000B4E0BFB06FC25EA06470EFB06F607FB9D
:101F80000EFE0BFB07F71EEB064E4CEB164C4FF00C
:101F900000061EEB074E4CEB174B18EB0B0840F1FD
:101FA000000018EB0E0B58EB000840F100008F1AF0
:101FB0004FF000013CBFC943661B14BFB5EB040CD6
:101FC00000213CBFC943F61B4FEA17444EEA8E0E70
:101FD00027EA04454FEA1C4704FB07622CEA074C3A
:101FE00005FB07F70CFB05F604FB0CFC16EB07469C
:101FF00042EB174216EB0C4642EB1C421BEB06066B
:1020000058EB0202414146EA9E0601D5BDE801892E
:10201000B619524141EB0101A3F10103BDE8018969
:102020004FEA14454FEA114724EA054621EA074CD6
:1020300005FB07F406FB07F70CFB06F105FB0CFCA0
:1020400011EB074144EB17444FEA124711EB0C41E7
:1020500044EB1C4422EA074C05FB07F206FB07F79A
:102060000CFB06F605FB0CFC16EB074642EB174291
:1020700016EB0C4642EB1C456A1854F1000148BFB0
:102080007047B619524141EB0101A3F101037047BA
:1020900095F0000F37D04FEA11424FEA144721EA7A
:1020A000024624EA074C02FB07F106FB07F70CFB8C
:1020B00006F402FB0CFC14EB074441EB17414FEA1A
:1020C000154714EB0C4441EB1C4125EA074C02FB7D
:1020D00007F506FB07F70CFB06F602FB0CFC16EBFC
:1020E000074645EB174516EB0C4645EB1C4212190B
:1020F00051F1000148BF7047B619524141EB01014F
:10210000A3F1010370474FEA14454FEA114724EA4F
:10211000054621EA074C05FB07F106FB07F70CFB18
:1021200006F24FF0000605FB0CFC12EB074241EBF8
:10213000174112EB0C4251EB1C4148BF70479218FB
:1021400041EB0101A3F10103704700F00F01000909
:1021500000EB800001EB4000C0B27047FEE70000DA
:1021600070B50024012002F067FF174D0020C5F86C
:10217000A402142002F0D4FE0120C5F8A4021E20FF
:1021800002F0D0FE002002F057FF03E00120641CA3
:1021900002F0C8FED5F8240210B1642CF6D30BE08F
:1021A000642C09D203E00120641C02F0BBFED5F8C8
:1021B000240218B1642C04D3012070BD642CF2D326
:1021C000FAE7002070BD00000000434270470A217A
:1021D000B0FBF1F201FB1202B0FBF1F042EA001099
:1021E000C0B2704710B5082000F06EF8012811D178
:1021F00005F040FD08490A68821AB2F5967F04D3BB
:10220000064A13785B1C13700860BDE81040082074
:1022100000F054B810BD0000AC0000200C000020FD
:1022200070B5102000F050F8012814D105F022FDFF
:10223000094D04462868201AB0F5967F06D3074951
:1022400000200860012003F0EEF82C60BDE870402B
:10225000102000F033B870BDAC0000201C0000203E
:1022600038B5002000905020EFF3118480F31188DE
:10227000BFF34F8FBFF36F8F4FF48075284600F088
:1022800023F8012808D10B486A464021006805F070
:102290008FF8284600F012F8009838B106494FF040
:1022A00080500860BFF34F8FBFF36F8F84F31188A6
:1022B00038BD00006800002004ED00E0014908601E
:1022C00070470000143C0140034A01460020126898
:1022D0000A4200D001207047143C014030B51A4A30
:1022E0008379016853B313688B431360111D0B6826
:1022F0000468A3430B60017911440B68046823430D
:102300000B60114B083319680468A14319601C1D48
:1023100021680568A94321604179102905D011443D
:102320000A68006802430A6030BD196802681143F8
:102330001960216800680143216030BD00791044B4
:1023400002688A43026030BD003C014070B50B4E0C
:102350000546002428787F2801D9022200E00122C6
:1023600056F824002946FEF777FA28B1641CBC2CE5
:10237000F0D34FF0FF3070BD204670BD9C010020AF
:10238000F0B5002201274FF0030C0B6807FA02F5A5
:102390002B40AB422CD1066853000CFA03F4A64341
:1023A00006600E79D0F800E09E4046EA0E06066010
:1023B0000E79012E01D0022E12D18668A6438660C6
:1023C0004E79D0F808E09E4046EA0E0686604668E0
:1023D000AE43466045688E799640B6B23543456057
:1023E000C568A543C560CC799C40C3681C43C460E4
:1023F000521C102AC9D3F0BD4B07DB0E9A40C90806
:1024000010B500EB8100016A0F249C40A1430162DA
:10241000016A1143016210BD01837047FEE70000AD
:1024200070B50D4C0025C4F8A0520C48016821F489
:1024300040210160016841F480210160C4F8A45288
:10244000022004F5287402F06DFD012020600220B6
:1024500002F068FD256070BD00804042000402402B
:102460001CB50121022000F0CDFA4FF44070012488
:1024700000908DF8044000208DF8060003208DF8B0
:1024800005008DF8074069460448FFF779FF0448C6
:10249000C0F8A042C0F8A4421CBD000000040240E5
:1024A0000080404270B50D4C0026C4F8A0620C4874
:1024B000016821F440210160016841F4802101603C
:1024C0000125C4F8A452022004F5287402F02AFD64
:1024D0002560022002F026FD266070BD008040428B
:1024E000000402402DE9F0478146164800240168A7
:1024F00021F44021016001680160134E2546274602
:102500004FF00108C6F8A072022002F00BFDC6F8D9
:10251000A0826006040ED6F8240208B1641CE4B25E
:10252000012002F0FFFC6D1CEDB2082DEAD3B9F1D9
:10253000000F04D0FFF774FF2046BDE8F087FFF7D7
:10254000B1FFF9E700040240008040422DE9F0416C
:1025500005461448016821F440210160016841F4F6
:1025600080210160104E0027C6F8A0723C464FF053
:102570000108E809C6F8A4026806050E022002F068
:10258000D1FCC6F8A082022002F0CCFCC6F8A072F2
:10259000022002F0C7FC641CE4B2082CE9D3BDE8B9
:1025A000F0810000000402400080404270B50D48F8
:1025B000016821F440210160016841F4802101603B
:1025C000094C0120C4F8A402C4F8A002042004F5B8
:1025D000287402F0A7FC00256560042002F0A2FC2C
:1025E000256070BD00040240008040420E4810B5D6
:1025F000016821F440210160016841F480210160FB
:102600000A4C0020C4F8A002C4F8A402042004F577
:10261000287402F087FC012020606060BDE8104053
:10262000042002F07FBC0000000402400080404211
:1026300070B512480024016821F44021016001684E
:1026400001600F4D0126C5F8A462304602F06AFC15
:10265000C5F8A062012002F065FC07E0641CE4B24A
:10266000FA2C03D9FFF7C2FF012070BDD5F8240270
:102670000028F3D1C5F8A00270BD0000000402409C
:102680000080404210B50446000A00F03BFEE0B274
:10269000BDE8104000F036BE2DE9FC41012130209C
:1026A00000F0B0F901208DF8040000208DF806003C
:1026B00003218DF805100D4E4FF4C0658DF807000D
:1026C000009569463046FFF75BFE094F2C016946CD
:1026D00038460094FFF754FE29463046FFF79CFE2B
:1026E00021463846FFF798FEBDE8FC810014024001
:1026F0000010024010B504F023FB07490120C1F887
:10270000A402C1F8A8020549C1F8B402C1F8B80290
:10271000BDE8104004F034BB008042420000424259
:1027200010B504F00DFB07490020C1F8A402C1F860
:10273000A8020549C1F8B402C1F8B802BDE81040CA
:1027400004F01EBB008042420000424210B5FFF779
:1027500087FE80216B2000F0CAF8642002F0E0FBC5
:1027600000216B2000F0C3F8032000F08CF800205B
:1027700000F084F8322000F0A3F80021382000F0A7
:10278000B6F800216A2000F0B2F80021232000F002
:10279000AEF88021372000F0AAF8752000F01CF870
:1027A0000446014609A0FDF749FE682C01D001202E
:1027B00010BD01216B2000F09AF800216C2000F080
:1027C00096F8322000F07CF8002010BD5245533DB1
:1027D00025580D0A0000000010B50446FFF7E6FE7C
:1027E000D020FFF7B3FEFFF723FF2046FFF7AEFE32
:1027F000FFF71EFFFFF7DAFED120FFF7A7FEFFF776
:1028000017FF0020FFF76EFE0446FFF7EFFE20469D
:1028100010BD2DE9F0411C4615460F460646FFF750
:10282000C5FE7006000EFFF791FEFFF701FF20B115
:10283000FFF7DCFE0120BDE8F0813846FFF786FE99
:10284000FFF7F6FEFFF7B2FE012000EB4600C0B234
:10285000FFF77CFEFFF7ECFE08E0012D0CD0012015
:10286000FFF740FE6D1E04F8010BEDB2002DF4D110
:10287000FFF7BCFE0020DEE70020F1E7C006010EF6
:102880001C2000F034B8C006010E1B2000F02FB849
:10289000BC2801D3012110E0622801D302210CE001
:1028A0002A2801D3032108E0142801D3042104E0DD
:1028B0000A2801D3052100E006211A2000F017B8EC
:1028C00010B504464FF47A70844201D9044602E000
:1028D000042C00D20424B0FBF4F0401EC1B2192035
:1028E00000F005F86008BDE81040FFF7D1BF70B5F3
:1028F0000C460546FFF75AFED020FFF727FEFFF7EC
:1029000097FE50B92846FFF721FEFFF791FE2046BB
:10291000FFF71CFEFFF78CFE18B1FFF767FE0120E2
:1029200070BDFFF763FE002070BD2DE9F0411D462C
:1029300016460C460746FFF739FE7806000EFFF7ED
:1029400005FEFFF775FE60B92046FFF7FFFDFFF7B4
:102950006FFE00240CE0285DFFF7F8FDFFF768FE2E
:1029600020B1FFF743FE0120BDE8F081641CE4B212
:10297000B442F0D3FFF73AFE0020F5E7FEE77047D8
:1029800030B50F23C27801780125FAB1144A1268D4
:1029900001F1E02102F4E062C2F5E062C2F3072235
:1029A000C2F10404D3404278A24084781C4014430E
:1029B000220181F80024007800F01F018D404009B9
:1029C000800000F1E020C0F8005130BD01F01F0090
:1029D00085404809800000F1E020C0F8805130BDFA
:1029E0000CED00E00249084302490860704700000E
:1029F0000000FA050CED00E0014908627047000094
:102A000000000E42044A0029116801D0014300E091
:102A1000814311607047000030380240044A0029A9
:102A2000116801D0014300E081431160704700004C
:102A300040380240044A0029116801D0014300E0F7
:102A400081431160704700004438024070B5204B4C
:102A50001968204C11F00C0104D06610042903D031
:102A6000082903D004601BE0066019E0184A121F11
:102A70001168C1F38055116801F03F0115B1B6FB33
:102A8000F1F101E0B4FBF1F114681268C4F38814A9
:102A90006143C2F30142521C5200B1FBF2F10160EA
:102AA00019680F2202EA11110B4A545C0168E140D7
:102AB00041601C68072505EA9424145D21FA04F49A
:102AC00084601B6805EA5333D25CD140C16070BD9D
:102AD000083802400024F4001801002002460020BB
:102AE000510901290BD002290CD00849096802F0CC
:102AF0001F02012393400B4200D00120704703497D
:102B00007439F3E70149091FF0E700007438024007
:102B10000149086070470000800E47420149086083
:102B2000704700003C0E4742C0F30121032907D142
:102B3000074B1968074A21F4F81102400A431A604A
:102B4000034968310A68C0F30B0002430A6070470A
:102B500008380240FFFCFF0F38B50022124C0092EB
:102B6000CA222260532222600F4A1C3A00291168AF
:102B700002D00143116012E0814311600A4A183A01
:102B800095131168009B01EA10215B1C0093AB4276
:102B900001D00029F5D0116811EA102000D00120E1
:102BA000FF21216038BD00002428004010B54FF4FB
:102BB0008054204600F094F800281BD00E4A0021D3
:102BC000C2F8A412C2F8A8120C4AC2F8B412C2F891
:102BD000B812204600F02AF86001FFF76FFB2411BD
:102BE00000212046FFF7B8FF2046BDE81040012134
:102BF000FFF7B2BF10BD0000008042420000424219
:102C0000010901EB810100F00F0000EB4100C0B2AF
:102C10007047002103E0491C0A38C9B2C0B20A2833
:102C2000F9D2090740EA116070470000C0F30F10A5
:102C300040F08000C1430348026802F08002114363
:102C4000016070470C28004008B50D490020009035
:102C50000868400612D44FF0FF3008608B130868F4
:102C6000009A00F04000521C00929A4201D00028C5
:102C7000F5D00868400601D4002008BD012008BD39
:102C80000C2800400248016821F080010160704773
:102C90000C280040020010B50F480C4601680F4890
:102CA00001EA00014FEA1140E070C1F304236370B0
:102CB00001F03F03A370C1F3423121700AD1FFF745
:102CC0009FFFE0706078FFF79BFF6070A078FFF7D0
:102CD00097FFA07010BD0000042800403FFFFF00D8
:102CE0000B4A0021126802F00403094A383A1268BC
:102CF00003EAD03302401A43064B1B6803EA101064
:102D000003D00004000C00D00121084670470000E9
:102D1000402800400C280040020010B510480C4626
:102D20000168104801EA0001C1F305402070C1F3B9
:102D30000623637001F07F03A3704FF0400303EAA2
:102D40001141E1700AD1FFF75BFF20706078FFF757
:102D500057FF6070A078FFF753FFA07010BD000010
:102D6000002800407F7F7F0030B50E4DCA222A60C8
:102D700053222A600B4C0B4B1C3C1C33002920F0C7
:102D80000402216800F0040004D011432160196896
:102D9000014303E091432160196881431960FF20DA
:102DA000286030BD2428004070B5124D044600262E
:102DB000CA20286053202860FFF746FFA8B10D48BD
:102DC0001C38016821F0400101600168226811434C
:102DD00001600848A168143801600168A28841EACE
:102DE00002410160FFF74EFF0126FF2028603046B8
:102DF00070BD00002428004008B5034901EB8000A5
:102E00000090006808BD00005028004070B51446CE
:102E10000D46264A0021002810684FEA406005D080
:102E200000281CDA2078FFF7EBFE19E0002800DB11
:102E3000E1702078FFF7EDFE06046078FFF7E9FE09
:102E400046EA0026A078FFF7E4FE0643E07846EA6B
:102E50000046207BFFF7DDFE46EA006010E0E170EF
:102E6000207BFFF7CDFEA0782178E27840EA014090
:102E70006178090241EA02410843217B40EA01608E
:102E8000A168CA2208436168084308491C310A60E6
:102E900053220A60B5F5807F04D00A1F1060FF201E
:102EA000086070BD014A1432F8E7000008280040AD
:102EB00070B50C460026010060780FD0FFF7A0FE29
:102EC000A078FFF79DFEA078E17840EA01456078A0
:102ED0002178000240EA4130054315E0C10603D5E0
:102EE00020F010000A306070E078FFF792FE0504D1
:102EF0006078FFF78EFE45EA0025A078FFF789FE8F
:102F00000543207845EA40350D4CCA202060532007
:102F10002060FFF799FE78B10A480540084820383C
:102F20000560FFF7AFFE06481C380068800602D433
:102F300000F07EF800B10126FF202060304670BD11
:102F4000242800403FFFFF002DE9F0410C460026F9
:102F5000234F01002078396832464FEA416104D09E
:102F6000002930DAFFF74CFE2EE0002900DBE2708A
:102F7000FFF74FFE05046078FFF74BFE45EA00259A
:102F8000A078FFF746FE0543E07845EA0045144C7B
:102F9000CA201C34206053202060FFF755FE68B122
:102FA000104805400E4808380560FFF76BFE38688A
:102FB000800602D400F03CF800B10126FF2020601A
:102FC0003046BDE8F081E270A078217840EA014502
:102FD0006078E178000240EA01400543D7E700004D
:102FE000082800407F7F7F000549CA220A605322DB
:102FF0000A60034A103A1060FF2008607047000022
:103000002428004010B54FF480442046FFF768FEA6
:1030100000280AD00549012008602046FFF706FE77
:103020002002BDE81040FFF749B910BD1000002094
:1030300018B50020104B0090CA201860532018606B
:103040000D491839086820F0A00008604FF40034DA
:103050000868009A00F02000521C0092A24201D0A1
:103060000028F5D00868800601D5012000E0002086
:10307000FF21196018BD000024280040084ACA2119
:1030800011605321116006491C390B6823F00703B6
:103090000B600B6803430B60FF201060704700005B
:1030A0002428004018B50021134B0091CA21196053
:1030B0005321196010491C390028086803D040F4D6
:1030C0008060086014E020F4806008600A491839C4
:1030D0008C130868009A00F00400521C0092A2426F
:1030E00001D00028F5D00868400701D4002000E096
:1030F0000120FF21196018BD2428004008B5034AAB
:1031000002EB80000090016008BD000050280040E4
:103110000029018802D041F0400101E021F0400186
:10312000018070470246002012890A4200D0012027
:103130007047808970478181704730B502884C881C
:1031400002F441530A88CD8822438C882C432243C1
:103150000C8922434C8922438C892243CC89224307
:103160001A430280828B22F400628283098A0182E0
:1031700030BD000010B58A0721F003040849120F82
:1031800021440F23D1F8084893409C43C1F80848D4
:10319000D1F8083890400343C1F8083810BD00004A
:1031A000003001400CB500222749009201920868C6
:1031B00040F4803008604FF4A043086800F4003009
:1031C00001900098401C0090019810B90098984216
:1031D000F3D10868800334D5012001901A484030AB
:1031E000026842F0805202601848026842F440428D
:1031F00002601548083002680260026842F400422A
:103200000260026842F4A0520260031F104A1A6072
:103210000A6842F080720A600A689201FCD50D4982
:1032200040F205720A60016821F003010160016843
:1032300041F0020101600168C1F381010229FAD164
:103240000CBD01920CBD000000380240007000402F
:1032500008544007003C024010B5502080F311880C
:10326000BFF34F8FBFF36F8F04F00AFD18B104490D
:103270004FF080500860002080F3118810BD0000DE
:1032800004ED00E0124810B5016841F470010160DE
:103290001048016841F0010101600E4A0021083226
:1032A000116002680C4B1A400260031D0B4A1A6041
:1032B000026822F48022026006480C300160FFF7A9
:1032C00071FF03494FF000608039086010BD0000B5
:1032D00088ED00E000380240FFFFF6FE10300024C9
:1032E00010B5074C0021C4F89812C4F89C1204F5DC
:1032F000267403F033FA01206060206010BD0000E6
:103300000000434270B5064C0021C4F89812012514
:10331000C4F89C5204F5267403F020FA256070BDB1
:103320000000434208B5002100900348D0E9002383
:10333000084602F096F808BD980000202DE9F047F5
:1033400001210220FFF75EFB01214020FFF75AFB1D
:1033500001210803FFF76EFB934C28204FF0020871
:10336000206084F80480032767710025DFF83C9211
:10337000A571E57121464846FFF702F8102020604C
:10338000012626716771A571E57121464846FEF751
:10339000F7FF4FF4E070206026716771A571E57149
:1033A00021468348FEF7ECFF052203214846FFF73C
:1033B00023F8052211464846FFF71EF87D4F0021ED
:1033C0003846FFF7A5FE7C484FF48271082405803B
:1033D00041808580A0F80680068171024181848148
:1033E000C58101463846FFF7A8FE01213846FFF7A0
:1033F0008FFE724FC7F8A062C7F89C627048C0F891
:103400009062C7F8A052642007F5277701F088FD85
:103410007E60642001F084FD1120FFF761FF7820B9
:1034200001F07EFDB220FFF75BFF0C20FFF76AFF83
:103430000C20FFF767FF2846FFF764FF3320FFF7F4
:1034400061FF3320FFF75EFF3520FFF749FF284675
:10345000FFF758FF3620FFF743FF2846FFF752FFDC
:103460003A20FFF73DFF0520FFF74CFFB720FFF79D
:1034700037FF3520FFF746FFBB20FFF731FF2D2038
:10348000FFF740FFC020FFF72BFF2C20FFF73AFF8C
:10349000C220FFF725FF3046FFF734FFC320FFF7B8
:1034A0001FFF1520FFF72EFFC420FFF719FF202074
:1034B000FFF728FFC620FFF713FF0F20FFF722FFBB
:1034C000D020FFF70DFFA420FFF71CFFA120FFF77E
:1034D00019FFD620FFF704FFA120FFF713FFE0201C
:1034E000FFF7FEFE7020FFF70DFF0520FFF70AFF34
:1034F0000A20FFF707FF0B20FFF704FF0A20FFF762
:1035000001FF2720FFF7FEFE2F20FFF7FBFE4420E0
:10351000FFF7F8FE4720FFF7F5FE3720FFF7F2FE32
:103520001420FFF7EFFE1420FFF7ECFE2920FFF731
:10353000E9FE2F20FFF7E6FEE120FFF7D1FE702025
:10354000FFF7E0FE0720FFF7DDFE0C20FFF7DAFEB5
:103550002046FFF7D7FE2046FFF7D4FE0420FFF7F2
:10356000D1FE2F20FFF7CEFE3320FFF7CBFE462003
:10357000FFF7C8FE1820FFF7C5FE1520FFF7C2FEB3
:103580001520FFF7BFFE2B20FFF7BCFE2D20FFF715
:10359000B9FE2120FFF7A4FE2920FFF7A1FEBDE818
:1035A000F0472C20FFF79CBEA4000020000402403E
:1035B000001802400030014068140020000043421F
:1035C00000804042F8B51D4E002540F2255739468F
:1035D0003046009500F08EF818B3304600F018F928
:1035E000174CC1B2601C22787F2A03D21154227872
:1035F000521C2270232902D0D1B27F290DD3D1B21F
:1036000000230D540F486A460D49006804F008F97C
:1036100025708021601CFDF7E9F93946304600F03D
:1036200059F80098002807D007494FF080500860EB
:10363000BFF34F8FBFF36F8FF8BD00000010014044
:10364000702C00206C00002004ED00E0F8B51D4E49
:10365000002540F2255739463046009500F04AF8DB
:1036600018B3304600F0D4F8174CC1B2601C227871
:103670007F2A03D211542278521C2270232902D0AF
:10368000D1B27F290DD3D1B200230D540F486A4621
:103690000D49006804F0C4F825708021601CFDF716
:1036A000A5F93946304600F015F80098002807D0F3
:1036B00007494FF080500860BFF34F8FBFF36F8F03
:1036C000F8BD000000480040DC2B00206C0000200A
:1036D00004ED00E00A0A01219140C94301807047CE
:1036E0000029818902D041F4005101E021F4005108
:1036F0008181704770B501F01F0501260024C1F3D8
:10370000421306FA05F2012B0FD0022B0FD0838A49
:103710004FEA11210088134206FA01F600EA06007A
:1037200001D000B10124204670BD8389F0E7038AEF
:10373000EEE710B5C1F3421301F01F040121A140CF
:10374000012B07D0022B07D01430002A026805D0C5
:103750000A4304E00C30F8E71030F6E78A430260D1
:1037600010BD00007FB50446008A0D46C98820F4CC
:10377000405001432182A08941F20C618843A9880D
:103780002A8911436A8902431143A181A08A20F446
:103790004071A8890843A0826846FFF757F91A4884
:1037A000844202D01948844201D1039800E0029873
:1037B000A189090400EBC00101EB0010296801D5C3
:1037C000490000E08900B0FBF1F06422B0FBF2F1A7
:1037D00009010B096FF018056B4300EB8300A38907
:1037E0001D044FF0320306D503EBC000B0FBF2F02E
:1037F00000F0070005E003EB0010B0FBF2F000F072
:103800000F00084320817FBD0010014000140140DB
:103810008088C0F308007047FEE703B401984100B8
:10382000009850EAC12018BF04204A0D18BF40F08C
:10383000010040F2FF72B2EB515F08BF40F002009E
:10384000012808BF052002B0704730380A2801D28D
:1038500001207047002070477047000094B020217D
:1038600002A8FDF7E5F8282249490AA8FDF784F8DF
:10387000484C00204FF00A0960724FF03C0A1421B6
:103880004548FDF7D5F8DFF810B10BF1140B14E043
:10389000F078717A884210D1002409E008EB8401A5
:1038A00007EB84000422FCF7ABFF30B9641CE4B2E0
:1038B000F0788442F2D3002D62D0DFF8D8804FF048
:1038C000FF314446D8F8640004F0A4F84FF6FF76C0
:1038D0003046FFF727FDE07808B1002438E02020CB
:1038E000CDE9006000232DA24946282001F02EFEDC
:1038F00032E014FB0A9085B22B48372300901A4619
:103900002946142001F095FD202705F10A013346D0
:103910000AAA0D465020CDE9006701F017FE2021CC
:1039200002A8FDF785F80BEB840020A182780092B5
:1039300043781BF8242002A8FCF78CFD002302AA80
:1039400029465020CDE9006701F000FE641CE4B276
:1039500098F803008442CCD300231A461946464601
:10396000D8F8640003F0AAFEF0780B497072820068
:1039700014310948FDF700F8DFF81C8000255F4688
:103980004FF4FA7003F0AEFA002D96D180E70000F4
:10399000D482000800000020900400204E6F2041D7
:1039A0006C61726D00000000BA5304082530326467
:1039B0003A253032643A253032640000444D4FF0ED
:1039C000FF3986B04946686E04F024F84FF6FF7759
:1039D0003846FFF7A7FCDFF8FC8037231A46502152
:1039E0006420CDF8008001F024FD05F17C04202640
:1039F000A0786178E27838A30096CDE90132CDE96C
:103A000003103B460022BE21282001F0D2FDCDE963
:103A10000076002335A29621502001F097FD2078F2
:103A200034A10096CDE9011096213B4600220846BC
:103A300001F0BFFD00231A461946686E03F03EFEF2
:103A4000234901207C31FFF725F9A078297A8842A3
:103A500002D16878002837D04946686E03F0DAFF53
:103A600037231A4650216420CDF8008001F0E1FC94
:103A7000A0786178E27818A30096CDE90132CDE90B
:103A800003103B460022BE21282001F092FDCDE923
:103A90000076002315A29621502001F057FD2078D2
:103AA00014A10096CDE9011096213B46002208465C
:103AB00001F07FFD00231A461946686E03F0FEFDF3
:103AC000A078287200206870C82003F00BFAB7E7CE
:103AD00000000020666703083230253032782F2539
:103AE0003032782F2530327800000000D0C7C6DA97
:103AF0000000000025303178000000001AA086B0D8
:103B000007C802AB1B4E83E80700DFF86C804FF05C
:103B1000FF3A4FF6FF774FF020094FF4FA75514600
:103B2000706E03F077FF3846FFF7FCFB37231A4629
:103B300050216420CDF8008001F07BFCCDE90079B4
:103B4000002302AABE21322001F000FD00231A4604
:103B50001946706E03F0B2FD0024284603F0C2F946
:103B6000002CFAD0DBE70000B9A6C4DCB4FDCAB56E
:103B7000CFD6000000000020C44F030898B00020FA
:103B800016901790202102A8FCF752FF20210AA8C6
:103B9000FCF74EFF39480DF1480C394E0FC88CE840
:103BA0000F004FF0FF384146706E03F033FF354889
:103BB000372300901A465021642001F03AFC20255A
:103BC0004FF6FF74002330A296213220CDE9004544
:103BD00001F0BCFC00232EA2BE213220CDE900451D
:103BE00001F0B4FC00231A461946706E03F066FD1E
:103BF0004FF4FA7717A916A801F0F6F9C8BB169882
:103C0000316E884235D04146706E03F003FF234683
:103C100012AA96218220CDE9004501F097FC2346A7
:103C200012AABE218220CDE9004501F08FFC1AA125
:103C300002A8169AFCF70EFC002302AA9621822005
:103C4000CDE9004501F082FC15A10AA8179AFCF7FE
:103C500001FC00230AAABE218220CDE9004501F023
:103C600075FC00231A461946706E03F027FD16985E
:103C70003066384603F036F9BCE70000C48200081D
:103C800000000020183C0408CEC2B6C83A0000006C
:103C9000CAAAB6C83A000000256420A1E6000000C8
:103CA00025642052480000001AA086B007C802AB65
:103CB0001B4E83E80700DFF86C804FF0FF3A4FF6A9
:103CC000FF774FF020094FF4FA755146706E03F0FC
:103CD000A1FE3846FFF726FB37231A465021642001
:103CE000CDF8008001F0A5FBCDE90079002302AA00
:103CF000BE21322001F02AFC00231A461946706EBC
:103D000003F0DCFC0024284603F0ECF8002CFAD089
:103D1000DBE70000B9A6C4DCB4FDCAB5CFD600000D
:103D200000000020087F03082DED028BA6B0402183
:103D300003A8FCF77DFE402113A8FCF779FEDFF80D
:103D4000F0A2BA4E4FF4FA704FF000085546CAF888
:103D500070004FF0FF31DAF8640003F05BFEB7103B
:103D60003846FFF7DFFAB348372300901A46502150
:103D7000642001F05EFB4FF02009CDE900790023BB
:103D8000ADA29621322001F0E1FBCDE900790023BC
:103D9000ABA2BE21322001F0D9FB00231A461946FE
:103DA000686E03F08BFC0025DFF89CB23AE003F06C
:103DB00061FFDFF898920746D9F81402012804D170
:103DC00003F058FFC01B6428F6D323A9072001F095
:103DD00098FC9DF88C009DF88D108007800B40EAC0
:103DE00001219DF88E00014358464BF825109DF89F
:103DF0008F109DF890208907890B41EA02219DF8D8
:103E000091201143924A42F825105BF82510B142E7
:103E100001D250F8256050F82520424501D950F8CC
:103E200025806D1CDAF870008542C0DB5BF8250048
:103E30005E467F4A0B3202F16D01501E8DE807008D
:103E40000B1F814ADAF87010814801F011FDDFF88C
:103E500000B2B2469FED7F8A7548744D4FF4FA73F5
:103E60000026036764205A46514651F8203001EB82
:103E70008007A7F58057C7F8703E52F8203002EB54
:103E80008007A7F58057C7F8703E51F82030AB4245
:103E900001D251F8205051F82030B34201D951F8E5
:103EA0002060401CB0F5FA7FDFDB4FF4C8770AEBE7
:103EB000870050F8048C03F0DDFE81466348D0F89B
:103EC0001402012805D103F0D5FEA0EB09006428F7
:103ED000F4D323A9072001F014FC9DF88C009DF871
:103EE0008D108007800B40EA01219DF88E00014370
:103EF0004AF827109DF88F109DF890208907890BAC
:103F000041EA02219DF8912011434BF827105AF8FD
:103F100027205AF82710424516D9A1EB080000EED9
:103F2000100A701B00EE900AB8EE400AB8EE601A54
:103F3000C0EE010A20EE880ABDEEC00A10EE100A9B
:103F4000241A18D5002416E0A8EB010000EE100A90
:103F5000701B00EE900AB8EE400AB8EE601AC0EE90
:103F6000010A20EE880ABDEEC00A10EE100A0444D1
:103F7000FF2C00DDFF247F1CB7F5FA7F97DB2C4A6E
:103F80002B4D0B3202F16D01501E8DE807000B1F07
:103F90002D4A296F2E4801F06BFC0A21686E03F050
:103FA00039FDE87A012819D1A86F3C2816DBA86FE3
:103FB000642813DC402103A8FCF73AFDAA6F26A170
:103FC00003A8FCF747FA20214FF6FF70CDE9000166
:103FD000002303AA9621822001F0B8FAA87A0128CA
:103FE00019D1686F5F2816DB686F642813DC4021E5
:103FF00013A8FCF71DFD6A6F17A113A8FCF72AFA96
:1040000020214FF6FF70CDE90001002313AABE2145
:10401000822001F09BFA00231A461946686E03F0CD
:104020004DFB4FF4FA7002F05DFF15E7FFFF030050
:104030000000002032F50308D0C4C2CA3A000000D4
:10404000D1AAD1F53A000000880C002000004242BD
:10405000B804002000007F432533640090B0202185
:1040600004A8FCF7E5FC96480CAB07C883E80700FA
:1040700002F0CAFA4FF6FF7B5C465846FFF752F94A
:1040800090490120FEF706FE8E490120091DFEF72A
:1040900043FE8C4D4FF0FF317C3D686E03F0BAFC5F
:1040A00005F1800688A17378327850208DE80F00E2
:1040B000002223463C21104601F07BFA1020CDE976
:1040C0000040002383A208218E2001F03FFA83489C
:1040D000202300901A460021B42001F0AAF9002301
:1040E0001A461946686E03F0E9FA3078287170783C
:1040F0006871FEF7FFFA0024B146A889C00714D002
:104100005846FFF70FF9686A58B96E4905205839C3
:10411000CDE9000100234FF4007271A1714803F052
:104120006FFD0020EC6202F003FF6878A0B36549E0
:104130000120091DFEF7F0FD62490120FEF7AAFDEE
:104140004FF0FF31686E03F065FC4FF05008CDE989
:1041500000B85F463B460CAA3C21002001F0F6F96E
:104160004E4699F8013099F8002057A104A8FCF7B1
:1041700071F9CDE90078002304AA3C21184601F02A
:10418000E5F900231A461946686E03F097FA30786D
:104190002871707868716C702869B8B32C614949CE
:1041A0000120091DFEF7B8FD99F8000029794E4657
:1041B000884203D170786979884227D04FF0FF3167
:1041C000686E03F027FC4FF05008CDE900B85F4659
:1041D0003B460CAA3C21002001F0B8F973783278F4
:1041E00039A104A8FCF736F9CDE90078002304AA28
:1041F0003C21184601F0AAF900231A461946686EB8
:1042000003F05CFA30782871707868714A4699F842
:104210000000FDF79AFF00905078FDF796FF0646E4
:104220009078FDF792FF0746A8784FF0000838B164
:10423000AC70FEF775FA0120A87103F01BFDE8656C
:104240000021DFF8A4A0EA7810E00AEB8100C3782F
:1042500053B190F800C0009B9C4505D14378B34210
:1042600002D18078B84206D0491CC9B29142ECD341
:10427000B8F1000F08D0A87940B9FEF751FA012033
:10428000A87103F0F7FCE865A87950B103F0F2FCDF
:10429000E96D401A47F23051884202D9FEF72AFAF6
:1042A000AC716879FDF751FFB04203D0AC7199F859
:1042B000010068714FF4FA7002F014FE1DE700006F
:1042C000B88200087C000020253032783A25303250
:1042D000780000003130302500000000C44703089A
:1042E0007569310041450008A40400207CB5FEF743
:1042F000D3F900F0FDFF01F04DFAFEF727FAFFF7C2
:104300001DF802F00DFB4FF6FF70FFF70BF8244885
:10431000C82300901A461921142001F08AF84FF49E
:104320007A75284602F0DEFD1E490720CDE900011E
:104330004FF40076002332461BA11C4803F060FCBA
:10434000184805241038CDE900400023324618A152
:10435000184803F055FC134800230C30CDE9004009
:10436000324615A1164803F04BFC16480123009075
:104370001A46294614A003F017FE0A4C3C3CA065DF
:1043800003F078FC02460020034600900121A06D56
:1043900003F058FEBDE87C40002002F0C9BD0000DB
:1043A00086E104083C00002074700000714400089D
:1043B000727463005D4000087573617274000000E0
:1043C000B54A0008D172000874696D65720000007A
:1043D0008AB00024202102A8FCF72AFB002000F06C
:1043E0005DFE204D671E3946686E03F013FB1E48C4
:1043F000372300901A465021642001F01AF8002358
:104400001A461946686E03F059F92026B8463F0C43
:104410004FF4FA791348183000F028FEAA6913A166
:1044200002A8FCF717F84146686E03F0F3FACDE9ED
:104430000076002302AAA021822001F087F8002341
:104440001A461946686E03F039F9641C642C05D3CA
:104450000448183000F00AFEA8690024484602F01B
:1044600041FDD7E700000020EEC50308256C75006C
:104470001CB50126314D4FF48C780027694601A800
:1044800002F0DEFA0446686A40B334B3FEF732F94C
:10449000E87918BBEE71042C09D0022C0AD0012C4B
:1044A0000DD0BDF800003C280BD2022103E04FF4F0
:1044B000807100E02021A86E02F033FF0EE0402161
:1044C000F9E7822801D20821F5E7D22801D210218C
:1044D000F1E7404502D20421EDE7EF71A86A48B345
:1044E0003CB3FEF707F9E87920BBEE71042C08D045
:1044F000012C09D0BDF800003C280BD24FF400611C
:1045000004E04FF4007101E04FF48061A86E02F006
:1045100008FF0FE0822802D24FF48051F6E7D2283C
:1045200002D24FF40051F1E7404503D24FF48041ED
:10453000ECE7EF71B42002F0D5FC9FE7000000200B
:104540001CB5A84D4FF0FF3B5946686E03F062FA68
:104550004FF6FF794846FEF7E5FEA3A300220A21A5
:10456000142000F0AFFDA2A306224921142000F080
:10457000A9FDA1A309228821142000F0A3FDA0A376
:104580000522C721142000F09DFD00231A4619467C
:10459000686E03F093F8322700244FF49F7A0526C3
:1045A0004FF40078287801280FD103F063FB696984
:1045B000411AB1F5967F03D3A989491CA981686185
:1045C00002F0BEFB2C7002F0DBFBA889C00730D1E3
:1045D000286C10B102F0ACFC2C64286B10B102F016
:1045E000A7FC2C63A86B10B102F0A2FCAC63686B53
:1045F00010B102F09DFC6C635946686E03F00AFA34
:104600004846FEF78FFE00231A461946686E03F0EF
:1046100055F8E86A48B9734800232C30CDE90060AA
:10462000424679A1794803F0EBFA00206C6202F06F
:104630007FFC0097002301225146A86E02F0C0FEC5
:10464000810718D5286C0028ACD15946686E03F054
:10465000E1F94846FEF766FE00231A461946686EE1
:1046600003F02CF85F4842464030CDE9006000235B
:1046700067A168484FE0410718D5286B002891D101
:104680005946686E03F0C6F94846FEF74BFE002314
:104690001A461946686E03F011F852484246303007
:1046A000CDE9006000235CA15C4834E0010718D527
:1046B000A86B0028C8D15946686E03F0ABF948468C
:1046C000FEF730FE00231A461946686E02F0F6FF28
:1046D000444842463830CDE90060002350A152489A
:1046E00019E0C1061AD5686B0028ADD15946686E2D
:1046F00003F090F94846FEF715FE00231A461946C6
:10470000686E02F0DBFF374800233430CDE90060EB
:10471000424646A1474803F073FA43E7C10540D536
:10472000296B286CAA6B014311436A6B1143F4D0C7
:1047300010B102F0FDFB2C64286B10B102F0F8FB05
:104740002C63A86B10B102F0F3FBAC63686B10B183
:1047500002F0EEFB6C635946686E03F05BF9484665
:10476000FEF7E0FD20A300220A21142000F0AAFC9D
:104770001FA306224921142000F0A4FC1EA3092235
:104780008821142000F09EFC1DA30522C7211420BF
:1047900000F098FC00231A461946686E02F08EFF5E
:1047A00000E78006B9D5686A0028B6D05946686E19
:1047B00003F030F94846FEF7B5FD00231A461946C6
:1047C000686E02F07BFF074800232830CDE90060C7
:1047D000424619A1194803F013FA00206C6202F056
:1047E000A7FBDFE600000020C8D52020C0FA0000AB
:1047F000C4D62020D6D30000D0C42020C2CA0000D6
:10480000CEC2CAAAB6C80000727463005D40000838
:1048100063616C00BD390008646874007D3B00086A
:10482000616C61726D0000005D380008686561723E
:1048300074000000293D00087569320041480008F5
:104840001CB5834C4FF0FF3B5946606E03F0E2F815
:104850004FF6FF794846FEF765FD7EA308220A2140
:10486000142000F02FFC7DA307224921142000F022
:1048700029FC7DA30A228821142000F023FC7CA3BC
:104880000B22C721142000F01DFC00231A461946F4
:10489000606E02F013FF322700254FF4FC4A052614
:1048A0004FF400780097002301225146A06E02F0D9
:1048B00087FD010518D5606C0028F3D15946606E5C
:1048C00003F0A8F84846FEF72DFD00231A461946C6
:1048D000606E02F0F3FE5E4842464430CDE900606F
:1048E000002366A167484FE0C10418D5E06C00289A
:1048F000D8D15946606E03F08DF84846FEF712FD98
:1049000000231A461946606E02F0D8FE504842460F
:104910004C30CDE9006000235BA15D4834E08104A8
:1049200018D5206D0028BDD15946606E03F072F88D
:104930004846FEF7F7FC00231A461946606E02F05F
:10494000BDFE434842465030CDE90060002351A1EE
:10495000524819E041041AD5606D0028A2D1594689
:10496000606E03F057F84846FEF7DCFC00231A4659
:104970001946606E02F0A2FE354800235430CDE99E
:104980000060424646A1484803F03AF98AE78105AB
:1049900040D5E16C606C226D01431143626D11439F
:1049A00080D010B102F0C4FA6564E06C10B102F07E
:1049B000BFFAE564206D10B102F0BAFA2565606DAA
:1049C00010B102F0B5FA65655946606E03F022F841
:1049D0004846FEF7A7FC1FA308220A21142000F076
:1049E00071FB1EA307224921142000F06BFB1EA3BC
:1049F0000A228821142000F065FB1DA30B22C72189
:104A0000142000F05FFB00231A461946606E02F086
:104A100055FE47E74005B9D55946606E02F0FAFFEA
:104A20004846FEF77FFC00231A461946606E02F0E6
:104A300045FE074800232430CDE9006042461BA113
:104A40001B4803F0DDF80020A56202F071FA29E7A7
:104A500000000020B2BD2020CAFD0000CEDECFDF66
:104A6000C9E8B1B800000000CFE02020BBFA000088
:104A7000C8CBC1B3CAB6B1F0000000007374657052
:104A800000000000D1430008776972650000000053
:104A9000F94D000863616D6572610000FD3A000820
:104AA0006661636500000000A93C0008756931007B
:104AB00041450008A4B0944C4FF0010901AE6422B6
:104AC00001A9E06E02F00AFF01287DD1711C8FA0C0
:104AD000FBF7B4FC91A1701CFBF780FE00283AD0D4
:104AE00091A1701CFBF774FE8FA10020FBF770FEF4
:104AF0000028E4D0FBF75EFE07468BA10020FBF701
:104B000067FE0028DBD0FBF755FE804686A100201B
:104B1000FBF75EFE0028D2D0FBF74CFE0546F8B24C
:104B2000FDF755FB784B8033187008F0FF00FDF758
:104B30004EFB5870E8B2FDF74AFB7349987080311C
:104B40000120FEF701FA2B464246394677A0FBF7D3
:104B500075FC84F801907DA1701CFBF73FFE0028D6
:104B60004AD071A1701CFBF733FE6FA10020FBF748
:104B70002FFE0028A3D0FBF71DFE05466AA10020EA
:104B8000FBF726FE00289AD0FBF714FE824666A1AA
:104B90000020FBF71DFE002891D0FBF70BFE80469E
:104BA00061A10020FBF714FE002888D0FBF702FE6D
:104BB0000746A5F5FA65E8B2FDF709FB524B7C33D1
:104BC000D8700AF0FF0000E090E0FDF700FB58709D
:104BD00008F0FF00FDF7FBFA98704B491F707C311D
:104BE0000120FEF765F94346524629465AA0009730
:104BF000FBF724FC84F8019061A1701CFBF7EEFD2B
:104C000000285AD04FF4807A00215046FDF7A4FFC7
:104C100045A1701CFBF7DCFD43A10020FBF7D8FD8C
:104C20000028A7D0FBF7C6FD22903FA10020FBF78C
:104C3000CFFD00289ED0FBF7BDFD83463AA10020A2
:104C4000FBF7C6FD002895D0FBF7B4FD0546E078DC
:104C500005284FD222990BF0FF08CAB24B49EFB298
:104C600001F8202001EB8001401C81F801808F7049
:104C700081F80390E0701046FDF7A9FA444B1870D4
:104C80004046FDF7A4FA58703846FDF7A0FA987030
:104C90004FF0004058603E4A574651460120FEF70B
:104CA000B5F801213846FDF757FFE07800902B4614
:104CB0005A4638A02299FBF7C1FB40A1701CFBF7B4
:104CC0008DFD78B100214FF48070FDF745FF142170
:104CD0002E48FBF7ADFE0020E070FDF70BFD3AA07B
:104CE000FBF7ACFB8021701CFBF780FE322002F04A
:104CF000F9F8E4E6052139A0FBF7A0FB8021701C40
:104D0000FBF774FEDBE600000000002052656376CE
:104D100020434D443A2025730D0A000054494D4567
:104D200020534554000000002D00000053657420FE
:104D300054696D65204F4B3A20253032643A253056
:104D400032643A253032640D0A0000004441544573
:104D5000205345540000000053657420446174657D
:104D6000204F4B3A3230253032642D253032642DBD
:104D700025303264205765656B3A25640D0A0000C2
:104D8000414C41524D20534554000000A4040020E2
:104D90005814002041646420416C61726D204F4BB7
:104DA00020253032643A253032643A253032642C82
:104DB00020746F74616C3A25640D0A00414C4152B5
:104DC0004D204F4646000000416C6C20416C6172E2
:104DD0006D20436C6F7365640D0A0000416C617255
:104DE0006D206C6973742066756C6C2C206D617815
:104DF0002025640D0A0000001AA086B007C802AB87
:104E00001B4E83E80700DFF86C804FF0FF3A4FF647
:104E1000FF774FF020094FF4FA755146706E02F09B
:104E2000F9FD3846FEF77EFA37231A4650216420F2
:104E3000CDF8008000F0FDFACDE90079002302AA48
:104E4000BE21322000F082FB00231A461946706E04
:104E500002F034FC0024284602F044F8002CFAD07A
:104E6000DBE70000B9A6C4DCB4FDCAB5CFD60000AC
:104E700000000020E4C9040870B505460121122095
:104E8000FDF7C0FD01218803FDF7D4FD0121880451
:104E9000FDF7C4FD1E494FF4406000240860022065
:104EA00008718C71032048711A4ECC713046FDF7A1
:104EB00067FA07220A213046FDF79EFA07220B21E6
:104EC0003046FDF799FA14490C200D608C80CC8097
:104ED0000C818C81114C48812046FEF743FC012255
:104EE00040F225512046FEF724FC09492720091FDE
:104EF000087006204870052088700120C870084698
:104F0000FDF73EFD2046BDE870400121FEF7E8BBFD
:104F10000C01002000040240602C002000480040EA
:104F200001F0E0BF2DE9F0414FF0E0280024D8F86F
:104F300014700E4A0E4BD8F818501268B2FBF3F6F4
:104F4000464302F079F941468869A842FCD002D272
:104F5000A5EB000202E0A7EB00022A441444054638
:104F6000B442F1D3BDE8F04102F0BCBF84000020A0
:104F700040420F0070B50024124D03E00120641C74
:104F8000FFF7D0FFD5F8240210B1642CF6D30CE063
:104F9000642C0AD2002403E00120641CFFF7C2FF46
:104FA000D5F8240218B1642C04D3642070BD642C9D
:104FB000F2D3FAE72820FFF7B5FFD5F82402C0B2F4
:104FC00070BD00000000434270B500252C46FFF77D
:104FD000D1FFC4F1070188402843641CE4B2C5B284
:104FE000082CF4D3284670BD2DE9FC410E46074637
:104FF000FDF7B6F8E8B900246D46FFF7E5FF285540
:10500000641CE4B2052CF8D39DF800109DF8010053
:105010009DF803300A189DF8020003441A449DF8D5
:105020000430D2B29A4204D1386000203160BDE829
:10503000FC810120FBE700001CB504460121402053
:10504000FDF7E0FC8DF8044000208DF806004FF4D9
:1050500000718DF8070000918DF80500694602483F
:10506000FDF78EF91CBD00000018024038B50400A1
:105070004FF0FF3506D06A4604214FF4587000F017
:1050800051FE08B1284638BD00989DF8031000BABB
:1050900020F0FF0008432060002038BD08B5010E55
:1050A0008DF80010010C8DF80110010A8DF8021026
:1050B0008DF803006A4604214FF4587000F05CFE3E
:1050C00008BD00002DE9FC4106460D460E4802EBE6
:1050D000820100EB81041F4660680090D4E902233E
:1050E0002946304600F0A5F920214FF6FF70CDE9A2
:1050F000000100233A4605F10D0106F1500000F0D1
:1051000025FABDE8FC8100003C81000803490A88BB
:105110005206FCD5C2B28A807047000000100140E0
:105120002DE9F0410746012001F006FB0F4C002558
:10513000C4F8A452C4F8A0520120FFF7F3FE0126E0
:1051400017B1C4F8A46201E0C4F8A4520120FFF72B
:10515000E9FEC4F8A0620120FFF7E4FEC4F8A05203
:10516000BDE8F0410120FFF7DDBE000000804042B5
:1051700010B501210220FDF745FC0A484FF44071AB
:105180000124016004710321417184710021C17106
:1051900001460548FDF7F4F80448C0F8A042C0F8FD
:1051A000A44210BDC800002000040240008040421C
:1051B0002DE9F0410025284601F0BEFA07240D4FE5
:1051C00001264FF00008C7F8A0620120FFF7AAFEF1
:1051D000D7F8240218B106FA04F02843C5B2C7F87C
:1051E000A0820120FFF79EFE641EECD52846BDE894
:1051F000F0810000008040422DE9F041804601200E
:1052000001F09AFA124E0027C6F8A472C6F8A072EE
:105210000120FFF787FE0724012505FA04F010EAB4
:10522000080F02D0C6F8A45201E0C6F8A47201200B
:10523000FFF778FEC6F8A0520120FFF773FEC6F80C
:10524000A0720120FFF76EFE641EE6D5BDE8F08176
:105250000080404270B5012001F06EFA0A4C012036
:10526000C4F8A402C4F8A00204F52874FFF75AFE9B
:10527000002565600120FFF755FE2560BDE8704000
:105280000120FFF74FBE00000080404270B50120B2
:1052900001F052FA084C0020C4F8A4020125C4F819
:1052A000A052284604F52874FFF73CFE6560BDE86F
:1052B00070400120FFF736BE0080404270B50024E8
:1052C000204601F039FA094D0120C5F8A002FFF788
:1052D00029FED5F8240200B101240020C5F8A0025F
:1052E0000120FFF71FFE204670BD000000804042F5
:1052F00070B5012186B00846FDF784FB012110201E
:10530000FDF780FB01218803FDF794FB00248DF855
:105310000840032601258DF8096001958DF80B40A2
:1053200001A92F48FDF72CF81C208DF808400190AA
:105330008DF809608DF80B4001A92A48FDF720F887
:1053400000210846FDF716FF02210420FDF712FF99
:1053500003210420FDF70EFF04210846FDF70AFF94
:105360001D2003908DF810400C208DF811008DF851
:10537000125003A8FCF7B2FF06208DF800000524A8
:105380008DF801408DF802408DF803506846FDF716
:10539000F7FA08208DF800008DF801408DF80240E2
:1053A0008DF803506846FDF7EBFA09208DF80000F0
:1053B0008DF801408DF802408DF803506846FDF7E6
:1053C000DFFA0A208DF800008DF801408DF80240C8
:1053D0008DF803506846FDF7D3FA06B070BD0000A3
:1053E00000000240001002402DE9F04107461C4633
:1053F00016460D462A20FDF773FFB8B2FDF742F9B5
:10540000B0B2FDF73FF92B20FDF76AFF1435A8B2C3
:10541000FDF738F91434A0B2FDF734F9BDE8F041D6
:105420002C20FDF75DBF08B1292000E02820FDF702
:1054300057BF2DE9F0411F4616468219CB190025AA
:10544000521E5B1E069CFFF7CFFF7E4304E014F85C
:10545000010BFDF757FF6D1CB5EB460FF7D3BDE809
:10546000F0812DE9F04701EB030A86180D468146CD
:10547000AAF10103721EDDF82080FFF7B5FFC8F323
:1054800007270CE04C4607E03846FDF73BFF08F0E5
:10549000FF00FDF737FF641CA642F5D86D1CAA4536
:1054A000F0D8BDE8F0870000014880687047000030
:1054B0009800002010B50446000AFDF723FFE0B273
:1054C000BDE81040FDF71EBF2DE9F05F9B460B9E27
:1054D000904682198B19521E5B1EFFF785FF00252F
:1054E00006FB06FA27E0102E04D0202E06D0502E00
:1054F00012D007E0124901EB481002E0114901EB1C
:10550000C810475D07244FF0010909FA04F038423A
:105510000AD01FFA8BF009E008EBC80101EB081074
:10552000094901EB4010ECE70A9880B2FFF7C2FF8F
:10553000641EEAD56D1CB5EBDA0FD4D3BDE8F09F3D
:1055400044840008C49B000844FC00082DE9FC5F6B
:105550009B46DDE90CA61746884605460024814691
:1055600022E03819FCF7F2FE020001D5641C1BE0B2
:10557000CDE900A65B4641462846FFF7A5FF385D0A
:105580007F2802D93544A41C02E005EB5605641CB3
:10559000385D7F2804D9A81904E04D46B04403E0E3
:1055A00005EB5600EF28F8D8385D0028D9D1BDE8C2
:1055B000FC9F2DE9F041C2B015460F4680461C46BF
:1055C0004AAA02A8489E4999FAF726FFCDE9004663
:1055D0002B4602AA39464046FFF7B8FF42B0BDE865
:1055E000F08100001CB54FF44070FDF7FBF91C483A
:1055F0004FF47A710068B0FBF1F0401EB0F1807F8B
:105600000AD24FF0E0214861164AF02082F8140DCA
:1056100000208861072008614FF41655284601F0E4
:10562000D3FA012001F0CAFF0F4C606601F06CFE56
:10563000A066002281210A2001F0D2FFE066284600
:10564000FFF71AFC082004F12001CDE900018201D6
:10565000002306A1074802F0D3FA01F0B5FDFEE7EA
:10566000840000200FE000E00000002073746172ED
:1056700074000000ED42000810B50446FFF7EAFD93
:10568000AE20FFF7B9FDFFF719FE68B92046FFF716
:10569000B3FDFFF713FE38B9FFF7DCFDAF20FFF7CE
:1056A000ABFDFFF70BFE18B1FFF7F0FD002010BDBA
:1056B000FFF77EFD04460120FFF732FDFFF7E6FD10
:1056C000204610BD70B50C460546FFF7C3FDAE2061
:1056D000FFF792FDFFF7F2FD58B92846FFF78CFD62
:1056E000FFF7ECFD28B92046FFF786FDFFF7E6FD42
:1056F00018B1FFF7CBFD002070BDFFF7C7FD0120FB
:1057000070BD70B505460C460020FFF7B5FF0120BF
:10571000FFF7B2FFFFF79EFDAE20FFF76DFDFFF72D
:10572000CDFD98BB2846FFF767FDFFF7C7FD68BBB7
:10573000FFF790FDAF20FFF75FFDFFF7BFFD28BB30
:10574000FFF736FD20700020FFF7EAFCFFF730FD81
:1057500060700020FFF7E4FCFFF72AFDA070002036
:10576000FFF7DEFCFFF724FDE0700020FFF7D8FC18
:10577000FFF71EFD20710020FFF7D2FCFFF718FD98
:1057800060710120FFF7CCFCFFF780FDBDE87040A1
:10579000FFF77CBD1CB501211020FDF733F9202057
:1057A000009000208DF8040003218DF805108DF87D
:1057B000060001208DF8070069461A48FCF7E0FD55
:1057C000FFF7D6FC00F030F8C0210220FFF77AFF87
:1057D00000210320FFF776FF00210420FFF772FF6E
:1057E00000210520FFF76EFF00210620FFF76AFF6A
:1057F0000F210820FFF766FF03210920FFF762FF52
:1058000027210A20FFF75EFF24210C20FFF75AFF13
:1058100024210D20FFF756FF7F211020FFF752FFB4
:105820001CBD00000010024010B540210920FFF708
:1058300049FF4021BDE810400920FFF743BF2DE993
:10584000F8418046DDE90706009017460C46099DA1
:10585000404600F0CDF933463A462146404600F036
:10586000FAF92068A84200DB28462060BDE8F881EC
:105870002DE9FF4FB6B00C46DDE944950646002100
:105880009246084603E056F82020401C1144A042EE
:10589000F9DBB1FBF4F10020D04A05E056F82030E6
:1058A0005B1A42F82030401CA042F7DB002002EBDC
:1058B000800152F820304F683B44D1E902713944ED
:1058C0001944CB1701EB9371891042F82010401C4A
:1058D000B0F5F87FEBDBC24900204FF4F773BF4A05
:1058E00002EB800752F820C07F68A7EB0C0741F855
:1058F0002070401C9842F2DD002001EB800751F837
:1059000020207F689E463A4402EBD272521041F842
:105910002020401C7045F0DBDFF8C8C200208B4619
:1059200000210246471D08E0A2EB00085BF8223088
:105930003CF81880521C03FB1811BA42F4DB40F209
:105940007A4291FBF2F14BF82010401C5B46B0F517
:10595000F47FE5DD00221046774653F82010002939
:1059600000DC4942B846401C0A444045F5DD40F29F
:10597000EF1392FBF3F00822CDE90002052102911A
:10598000974A35A912A8FFF75AFF359900220DF161
:10599000480C02291BDB012008E00CEB80075CF8B7
:1059A000203057F8047CDB1B1A44401C8842F4DB8F
:1059B000481E92FBF0F041F2707292FBF0F0C9F8D1
:1059C00000000120287000200DF1980E0AE08648A2
:1059D000C9F800000020F5E75CF82020921C4EF882
:1059E0002020401C8842F7DB0020DFF8F09109E01E
:1059F00056F820307D4A49F820305AF8203042F8D5
:105A00002030401CA042F3DB002632461DE05EF849
:105A1000220001231F0600F1050CC44514DC441FBD
:105A2000002C11DD0DF10C0B401F09E059F820404E
:105A3000BC4204DA03B1002327464BF82200401C85
:105A40006045F3DB03B9761C521C8A42DFDB022E71
:105A500004DA3999644808600020B9E000204FF466
:105A6000F87C09EB800159F820404F685F4A3C44BC
:105A7000D1E9027139442144CC1701EB94718910AA
:105A800049F8201002EB800152F820304C68CB46D8
:105A90002344D1E9024121441944CB1701EB93710E
:105AA000891042F82010401C6045DADB00242046B3
:105AB00021AA002142F82010401C0528F8DB002014
:105AC0004FF4FA7205E003A951F820109142C0DCAE
:105AD000401CB042F7DB0021761E009654E003A87C
